{
  "_format": "hh-sol-artifact-1",
  "contractName": "FATQuest",
  "sourceName": "contracts/FAT_QUEST.sol",
  "abi": [
    {
      "inputs": [],
      "stateMutability": "nonpayable",
      "type": "constructor"
    },
    {
      "inputs": [
        {
          "internalType": "address",
          "name": "sender",
          "type": "address"
        },
        {
          "internalType": "uint256",
          "name": "balance",
          "type": "uint256"
        },
        {
          "internalType": "uint256",
          "name": "needed",
          "type": "uint256"
        },
        {
          "internalType": "uint256",
          "name": "tokenId",
          "type": "uint256"
        }
      ],
      "name": "ERC1155InsufficientBalance",
      "type": "error"
    },
    {
      "inputs": [
        {
          "internalType": "address",
          "name": "approver",
          "type": "address"
        }
      ],
      "name": "ERC1155InvalidApprover",
      "type": "error"
    },
    {
      "inputs": [
        {
          "internalType": "uint256",
          "name": "idsLength",
          "type": "uint256"
        },
        {
          "internalType": "uint256",
          "name": "valuesLength",
          "type": "uint256"
        }
      ],
      "name": "ERC1155InvalidArrayLength",
      "type": "error"
    },
    {
      "inputs": [
        {
          "internalType": "address",
          "name": "operator",
          "type": "address"
        }
      ],
      "name": "ERC1155InvalidOperator",
      "type": "error"
    },
    {
      "inputs": [
        {
          "internalType": "address",
          "name": "receiver",
          "type": "address"
        }
      ],
      "name": "ERC1155InvalidReceiver",
      "type": "error"
    },
    {
      "inputs": [
        {
          "internalType": "address",
          "name": "sender",
          "type": "address"
        }
      ],
      "name": "ERC1155InvalidSender",
      "type": "error"
    },
    {
      "inputs": [
        {
          "internalType": "address",
          "name": "operator",
          "type": "address"
        },
        {
          "internalType": "address",
          "name": "owner",
          "type": "address"
        }
      ],
      "name": "ERC1155MissingApprovalForAll",
      "type": "error"
    },
    {
      "inputs": [
        {
          "internalType": "address",
          "name": "owner",
          "type": "address"
        }
      ],
      "name": "OwnableInvalidOwner",
      "type": "error"
    },
    {
      "inputs": [
        {
          "internalType": "address",
          "name": "account",
          "type": "address"
        }
      ],
      "name": "OwnableUnauthorizedAccount",
      "type": "error"
    },
    {
      "inputs": [
        {
          "internalType": "uint256",
          "name": "expiry",
          "type": "uint256"
        }
      ],
      "name": "VotesExpiredSignature",
      "type": "error"
    },
    {
      "anonymous": false,
      "inputs": [
        {
          "indexed": true,
          "internalType": "address",
          "name": "account",
          "type": "address"
        },
        {
          "indexed": true,
          "internalType": "address",
          "name": "operator",
          "type": "address"
        },
        {
          "indexed": false,
          "internalType": "bool",
          "name": "approved",
          "type": "bool"
        }
      ],
      "name": "ApprovalForAll",
      "type": "event"
    },
    {
      "anonymous": false,
      "inputs": [
        {
          "indexed": true,
          "internalType": "address",
          "name": "delegator",
          "type": "address"
        },
        {
          "indexed": true,
          "internalType": "address",
          "name": "fromDelegate",
          "type": "address"
        },
        {
          "indexed": true,
          "internalType": "address",
          "name": "toDelegate",
          "type": "address"
        }
      ],
      "name": "DelegateChanged",
      "type": "event"
    },
    {
      "anonymous": false,
      "inputs": [
        {
          "indexed": true,
          "internalType": "address",
          "name": "delegate",
          "type": "address"
        },
        {
          "indexed": false,
          "internalType": "uint256",
          "name": "previousVotes",
          "type": "uint256"
        },
        {
          "indexed": false,
          "internalType": "uint256",
          "name": "newVotes",
          "type": "uint256"
        }
      ],
      "name": "DelegateVotesChanged",
      "type": "event"
    },
    {
      "anonymous": false,
      "inputs": [
        {
          "indexed": true,
          "internalType": "address",
          "name": "previousOwner",
          "type": "address"
        },
        {
          "indexed": true,
          "internalType": "address",
          "name": "newOwner",
          "type": "address"
        }
      ],
      "name": "OwnershipTransferred",
      "type": "event"
    },
    {
      "anonymous": false,
      "inputs": [
        {
          "indexed": true,
          "internalType": "address",
          "name": "operator",
          "type": "address"
        },
        {
          "indexed": true,
          "internalType": "address",
          "name": "from",
          "type": "address"
        },
        {
          "indexed": true,
          "internalType": "address",
          "name": "to",
          "type": "address"
        },
        {
          "indexed": false,
          "internalType": "uint256[]",
          "name": "ids",
          "type": "uint256[]"
        },
        {
          "indexed": false,
          "internalType": "uint256[]",
          "name": "values",
          "type": "uint256[]"
        }
      ],
      "name": "TransferBatch",
      "type": "event"
    },
    {
      "anonymous": false,
      "inputs": [
        {
          "indexed": true,
          "internalType": "address",
          "name": "operator",
          "type": "address"
        },
        {
          "indexed": true,
          "internalType": "address",
          "name": "from",
          "type": "address"
        },
        {
          "indexed": true,
          "internalType": "address",
          "name": "to",
          "type": "address"
        },
        {
          "indexed": false,
          "internalType": "uint256",
          "name": "id",
          "type": "uint256"
        },
        {
          "indexed": false,
          "internalType": "uint256",
          "name": "value",
          "type": "uint256"
        }
      ],
      "name": "TransferSingle",
      "type": "event"
    },
    {
      "anonymous": false,
      "inputs": [
        {
          "indexed": false,
          "internalType": "string",
          "name": "value",
          "type": "string"
        },
        {
          "indexed": true,
          "internalType": "uint256",
          "name": "id",
          "type": "uint256"
        }
      ],
      "name": "URI",
      "type": "event"
    },
    {
      "inputs": [
        {
          "internalType": "address",
          "name": "account",
          "type": "address"
        },
        {
          "internalType": "uint256",
          "name": "id",
          "type": "uint256"
        }
      ],
      "name": "balanceOf",
      "outputs": [
        {
          "internalType": "uint256",
          "name": "",
          "type": "uint256"
        }
      ],
      "stateMutability": "view",
      "type": "function"
    },
    {
      "inputs": [
        {
          "internalType": "address[]",
          "name": "accounts",
          "type": "address[]"
        },
        {
          "internalType": "uint256[]",
          "name": "ids",
          "type": "uint256[]"
        }
      ],
      "name": "balanceOfBatch",
      "outputs": [
        {
          "internalType": "uint256[]",
          "name": "",
          "type": "uint256[]"
        }
      ],
      "stateMutability": "view",
      "type": "function"
    },
    {
      "inputs": [
        {
          "internalType": "address",
          "name": "",
          "type": "address"
        },
        {
          "internalType": "uint32",
          "name": "",
          "type": "uint32"
        }
      ],
      "name": "checkpoints",
      "outputs": [
        {
          "components": [
            {
              "internalType": "uint32",
              "name": "fromBlock",
              "type": "uint32"
            },
            {
              "internalType": "uint256",
              "name": "votes",
              "type": "uint256"
            }
          ],
          "internalType": "struct FATQuest.Checkpoint",
          "name": "",
          "type": "tuple"
        }
      ],
      "stateMutability": "view",
      "type": "function"
    },
    {
      "inputs": [
        {
          "internalType": "address",
          "name": "delegatee",
          "type": "address"
        }
      ],
      "name": "delegate",
      "outputs": [],
      "stateMutability": "nonpayable",
      "type": "function"
    },
    {
      "inputs": [
        {
          "internalType": "address",
          "name": "delegatee",
          "type": "address"
        },
        {
          "internalType": "uint256",
          "name": "nonce",
          "type": "uint256"
        },
        {
          "internalType": "uint256",
          "name": "expiry",
          "type": "uint256"
        },
        {
          "internalType": "uint8",
          "name": "v",
          "type": "uint8"
        },
        {
          "internalType": "bytes32",
          "name": "r",
          "type": "bytes32"
        },
        {
          "internalType": "bytes32",
          "name": "s",
          "type": "bytes32"
        }
      ],
      "name": "delegateBySig",
      "outputs": [],
      "stateMutability": "nonpayable",
      "type": "function"
    },
    {
      "inputs": [
        {
          "internalType": "address",
          "name": "account",
          "type": "address"
        }
      ],
      "name": "delegates",
      "outputs": [
        {
          "internalType": "address",
          "name": "",
          "type": "address"
        }
      ],
      "stateMutability": "view",
      "type": "function"
    },
    {
      "inputs": [
        {
          "internalType": "uint256",
          "name": "questId",
          "type": "uint256"
        },
        {
          "internalType": "address",
          "name": "owner",
          "type": "address"
        }
      ],
      "name": "formAxonalBridge",
      "outputs": [],
      "stateMutability": "nonpayable",
      "type": "function"
    },
    {
      "inputs": [
        {
          "internalType": "uint256",
          "name": "blockNumber",
          "type": "uint256"
        }
      ],
      "name": "getPastTotalSupply",
      "outputs": [
        {
          "internalType": "uint256",
          "name": "",
          "type": "uint256"
        }
      ],
      "stateMutability": "view",
      "type": "function"
    },
    {
      "inputs": [
        {
          "internalType": "address",
          "name": "account",
          "type": "address"
        },
        {
          "internalType": "uint256",
          "name": "blockNumber",
          "type": "uint256"
        }
      ],
      "name": "getPastVotes",
      "outputs": [
        {
          "internalType": "uint256",
          "name": "",
          "type": "uint256"
        }
      ],
      "stateMutability": "view",
      "type": "function"
    },
    {
      "inputs": [
        {
          "internalType": "address",
          "name": "account",
          "type": "address"
        }
      ],
      "name": "getVotes",
      "outputs": [
        {
          "internalType": "uint256",
          "name": "",
          "type": "uint256"
        }
      ],
      "stateMutability": "view",
      "type": "function"
    },
    {
      "inputs": [
        {
          "internalType": "address",
          "name": "account",
          "type": "address"
        },
        {
          "internalType": "address",
          "name": "operator",
          "type": "address"
        }
      ],
      "name": "isApprovedForAll",
      "outputs": [
        {
          "internalType": "bool",
          "name": "",
          "type": "bool"
        }
      ],
      "stateMutability": "view",
      "type": "function"
    },
    {
      "inputs": [
        {
          "internalType": "address",
          "name": "to",
          "type": "address"
        },
        {
          "internalType": "uint256",
          "name": "fractalCount",
          "type": "uint256"
        }
      ],
      "name": "mintQuest",
      "outputs": [
        {
          "internalType": "uint256",
          "name": "",
          "type": "uint256"
        }
      ],
      "stateMutability": "nonpayable",
      "type": "function"
    },
    {
      "inputs": [
        {
          "internalType": "address",
          "name": "",
          "type": "address"
        }
      ],
      "name": "numCheckpoints",
      "outputs": [
        {
          "internalType": "uint32",
          "name": "",
          "type": "uint32"
        }
      ],
      "stateMutability": "view",
      "type": "function"
    },
    {
      "inputs": [],
      "name": "owner",
      "outputs": [
        {
          "internalType": "address",
          "name": "",
          "type": "address"
        }
      ],
      "stateMutability": "view",
      "type": "function"
    },
    {
      "inputs": [
        {
          "internalType": "uint256",
          "name": "",
          "type": "uint256"
        }
      ],
      "name": "questFractalCount",
      "outputs": [
        {
          "internalType": "uint256",
          "name": "",
          "type": "uint256"
        }
      ],
      "stateMutability": "view",
      "type": "function"
    },
    {
      "inputs": [
        {
          "internalType": "uint256",
          "name": "",
          "type": "uint256"
        },
        {
          "internalType": "uint256",
          "name": "",
          "type": "uint256"
        }
      ],
      "name": "questFractals",
      "outputs": [
        {
          "internalType": "uint256",
          "name": "",
          "type": "uint256"
        }
      ],
      "stateMutability": "view",
      "type": "function"
    },
    {
      "inputs": [],
      "name": "renounceOwnership",
      "outputs": [],
      "stateMutability": "nonpayable",
      "type": "function"
    },
    {
      "inputs": [
        {
          "internalType": "address",
          "name": "from",
          "type": "address"
        },
        {
          "internalType": "address",
          "name": "to",
          "type": "address"
        },
        {
          "internalType": "uint256[]",
          "name": "ids",
          "type": "uint256[]"
        },
        {
          "internalType": "uint256[]",
          "name": "values",
          "type": "uint256[]"
        },
        {
          "internalType": "bytes",
          "name": "data",
          "type": "bytes"
        }
      ],
      "name": "safeBatchTransferFrom",
      "outputs": [],
      "stateMutability": "nonpayable",
      "type": "function"
    },
    {
      "inputs": [
        {
          "internalType": "address",
          "name": "from",
          "type": "address"
        },
        {
          "internalType": "address",
          "name": "to",
          "type": "address"
        },
        {
          "internalType": "uint256",
          "name": "id",
          "type": "uint256"
        },
        {
          "internalType": "uint256",
          "name": "value",
          "type": "uint256"
        },
        {
          "internalType": "bytes",
          "name": "data",
          "type": "bytes"
        }
      ],
      "name": "safeTransferFrom",
      "outputs": [],
      "stateMutability": "nonpayable",
      "type": "function"
    },
    {
      "inputs": [
        {
          "internalType": "address",
          "name": "operator",
          "type": "address"
        },
        {
          "internalType": "bool",
          "name": "approved",
          "type": "bool"
        }
      ],
      "name": "setApprovalForAll",
      "outputs": [],
      "stateMutability": "nonpayable",
      "type": "function"
    },
    {
      "inputs": [
        {
          "internalType": "uint256",
          "name": "questId",
          "type": "uint256"
        },
        {
          "internalType": "address",
          "name": "owner",
          "type": "address"
        }
      ],
      "name": "splitQuest",
      "outputs": [],
      "stateMutability": "nonpayable",
      "type": "function"
    },
    {
      "inputs": [
        {
          "internalType": "bytes4",
          "name": "interfaceId",
          "type": "bytes4"
        }
      ],
      "name": "supportsInterface",
      "outputs": [
        {
          "internalType": "bool",
          "name": "",
          "type": "bool"
        }
      ],
      "stateMutability": "view",
      "type": "function"
    },
    {
      "inputs": [
        {
          "internalType": "address",
          "name": "newOwner",
          "type": "address"
        }
      ],
      "name": "transferOwnership",
      "outputs": [],
      "stateMutability": "nonpayable",
      "type": "function"
    },
    {
      "inputs": [
        {
          "internalType": "uint256",
          "name": "",
          "type": "uint256"
        }
      ],
      "name": "uri",
      "outputs": [
        {
          "internalType": "string",
          "name": "",
          "type": "string"
        }
      ],
      "stateMutability": "view",
      "type": "function"
    }
  ],
  "bytecode": "0x608060405234801562000010575f80fd5b503360405180606001604052806029815260200162001bd360299139620000378162000078565b506001600160a01b0381166200006657604051631e4fbdf760e01b81525f600482015260240160405180910390fd5b62000071816200008a565b5062000245565b600262000086828262000179565b5050565b600380546001600160a01b038381166001600160a01b0319831681179093556040519116919082907f8be0079c531659141344cd1fd0a4f28419497f9722a3daafe3b4186f6b6457e0905f90a35050565b634e487b7160e01b5f52604160045260245ffd5b600181811c908216806200010457607f821691505b6020821081036200012357634e487b7160e01b5f52602260045260245ffd5b50919050565b601f8211156200017457805f5260205f20601f840160051c81016020851015620001505750805b601f840160051c820191505b8181101562000171575f81556001016200015c565b50505b505050565b81516001600160401b03811115620001955762000195620000db565b620001ad81620001a68454620000ef565b8462000129565b602080601f831160018114620001e3575f8415620001cb5750858301515b5f19600386901b1c1916600185901b1785556200023d565b5f85815260208120601f198616915b828110156200021357888601518255948401946001909101908401620001f2565b50858210156200023157878501515f19600388901b60f8161c191681555b505060018460011b0185555b505050505050565b61198080620002535f395ff3fe608060405234801561000f575f80fd5b5060043610610152575f3560e01c80638d5603bc116100bf578063ad790b5e11610079578063ad790b5e14610308578063c3cda5201461031b578063e985e9c514610331578063f1127ed814610344578063f242432a1461039c578063f2fde38b146103af575f80fd5b80638d5603bc146102965780638da5cb5b146102b55780638e539e8c146102c6578063995413b5146102d45780639ab24eb0146102e7578063a22cb465146102f5575f80fd5b80634e1273f4116101105780634e1273f4146101fc578063587cde1e1461021c5780635c19a95c146102475780636fcfff4514610258578063715018a61461027b5780637d809d7d14610283575f80fd5b8062fdd58e14610156578063013458121461017c57806301ffc9a7146101915780630e89341c146101b45780632eb2c2d6146101d45780633a46b1a8146101e7575b5f80fd5b610169610164366004611271565b6103c2565b6040519081526020015b60405180910390f35b61018f61018a366004611299565b6103e9565b005b6101a461019f3660046112d8565b61058c565b6040519015158152602001610173565b6101c76101c23660046112fa565b6105db565b6040516101739190611354565b61018f6101e23660046114a6565b61066d565b6101696101f5366004611271565b5f92915050565b61020f61020a366004611549565b6106cc565b604051610173919061163d565b61022f61022a36600461164f565b505f90565b6040516001600160a01b039091168152602001610173565b61018f61025536600461164f565b50565b61026661022a36600461164f565b60405163ffffffff9091168152602001610173565b61018f610797565b610169610291366004611668565b6107aa565b6101696102a43660046112fa565b60056020525f908152604090205481565b6003546001600160a01b031661022f565b61016961022a3660046112fa565b6101696102e2366004611271565b6107d5565b61016961022a36600461164f565b61018f610303366004611688565b61082a565b61018f610316366004611299565b610839565b61018f6103293660046116c1565b505050505050565b6101a461033f36600461171c565b6109ea565b61037b610352366004611744565b50506040805180820182525f808252602091820181905282518084019093528083529082015290565b60408051825163ffffffff1681526020928301519281019290925201610173565b61018f6103aa366004611776565b610a17565b61018f6103bd36600461164f565b610a76565b5f818152602081815260408083206001600160a01b03861684529091529020545b92915050565b5f8281526006602090815260408083208054825181850281018501909352808352919290919083018282801561043c57602002820191905f5260205f20905b815481526020019060010190808311610428575b505050505090505f8151116104985760405162461bcd60e51b815260206004820152601f60248201527f46415451756573743a20517565737420686173206e6f206672616374616c730060448201526064015b60405180910390fd5b5f5b8151811015610555576104c6838383815181106104b9576104b96117d6565b60200260200101516103c2565b6001146105285760405162461bcd60e51b815260206004820152602a60248201527f46415451756573743a204f776e657220646f6573206e6f74206861766520616c6044820152696c206672616374616c7360b01b606482015260840161048f565b61054d8383838151811061053e5761053e6117d6565b60200260200101516001610ab0565b60010161049a565b506105718284600160405180602001604052805f815250610b1d565b5f838152600660205260408120610587916111de565b505050565b5f6001600160e01b03198216636cdb3d1360e11b14806105bc57506001600160e01b031982166303a24d0760e21b145b806103e357506301ffc9a760e01b6001600160e01b03198316146103e3565b6060600280546105ea906117ea565b80601f0160208091040260200160405190810160405280929190818152602001828054610616906117ea565b80156106615780601f1061063857610100808354040283529160200191610661565b820191905f5260205f20905b81548152906001019060200180831161064457829003601f168201915b50505050509050919050565b336001600160a01b038616811480159061068e575061068c86826109ea565b155b156106bf5760405163711bec9160e11b81526001600160a01b0380831660048301528716602482015260440161048f565b6103298686868686610b78565b606081518351146106fd5781518351604051635b05999160e01b81526004810192909252602482015260440161048f565b5f835167ffffffffffffffff81111561071857610718611366565b604051908082528060200260200182016040528015610741578160200160208202803683370190505b5090505f5b845181101561078f5760208082028601015161076a906020808402870101516103c2565b82828151811061077c5761077c6117d6565b6020908102919091010152600101610746565b509392505050565b61079f610bd6565b6107a85f610c03565b565b6006602052815f5260405f2081815481106107c3575f80fd5b905f5260205f20015f91509150505481565b5f6107de610bd6565b60048054905f6107ed83611836565b91905055505f60045490506108138482600160405180602001604052805f815250610b1d565b5f8181526005602052604090209290925550919050565b610835338383610c54565b5050565b61084381836103c2565b60011461089e5760405162461bcd60e51b8152602060048201526024808201527f46415451756573743a204e6f7420746865206f776e6572206f662074686520716044820152631d595cdd60e21b606482015260840161048f565b5f828152600560205260409020546108f85760405162461bcd60e51b815260206004820152601f60248201527f46415451756573743a2051756573742063616e6e6f742062652073706c697400604482015260640161048f565b5f8281526005602052604081205467ffffffffffffffff81111561091e5761091e611366565b604051908082528060200260200182016040528015610947578160200160208202803683370190505b5090505f5b5f848152600560205260409020548110156109be5760048054905f61097083611836565b91905055505f60045490508083838151811061098e5761098e6117d6565b6020026020010181815250506109b58482600160405180602001604052805f815250610b1d565b5060010161094c565b505f83815260066020908152604090912082516109dd928401906111f9565b5061058782846001610ab0565b6001600160a01b039182165f90815260016020908152604080832093909416825291909152205460ff1690565b336001600160a01b0386168114801590610a385750610a3686826109ea565b155b15610a695760405163711bec9160e11b81526001600160a01b0380831660048301528716602482015260440161048f565b6103298686868686610ce8565b610a7e610bd6565b6001600160a01b038116610aa757604051631e4fbdf760e01b81525f600482015260240161048f565b61025581610c03565b6001600160a01b038316610ad857604051626a0d4560e21b81525f600482015260240161048f565b604080516001808252602082018590528183019081526060820184905260a082019092525f60808201818152919291610b1691879185908590610d74565b5050505050565b6001600160a01b038416610b4657604051632bfa23e760e11b81525f600482015260240161048f565b604080516001808252602082018690528183019081526060820185905260808201909252906103295f87848487610d74565b6001600160a01b038416610ba157604051632bfa23e760e11b81525f600482015260240161048f565b6001600160a01b038516610bc957604051626a0d4560e21b81525f600482015260240161048f565b610b168585858585610d74565b6003546001600160a01b031633146107a85760405163118cdaa760e01b815233600482015260240161048f565b600380546001600160a01b038381166001600160a01b0319831681179093556040519116919082907f8be0079c531659141344cd1fd0a4f28419497f9722a3daafe3b4186f6b6457e0905f90a35050565b6001600160a01b038216610c7c5760405162ced3e160e81b81525f600482015260240161048f565b6001600160a01b038381165f81815260016020908152604080832094871680845294825291829020805460ff191686151590811790915591519182527f17307eab39ab6107e8899845ad3d59bd9653f200f220920489ca2b5937696c31910160405180910390a3505050565b6001600160a01b038416610d1157604051632bfa23e760e11b81525f600482015260240161048f565b6001600160a01b038516610d3957604051626a0d4560e21b81525f600482015260240161048f565b60408051600180825260208201869052818301908152606082018590526080820190925290610d6b8787848487610d74565b50505050505050565b610d8085858585610dc7565b6001600160a01b03841615610b165782513390600103610db95760208481015190840151610db2838989858589610fd6565b5050610329565b6103298187878787876110f7565b8051825114610df65781518151604051635b05999160e01b81526004810192909252602482015260440161048f565b335f5b8351811015610ef8576020818102858101820151908501909101516001600160a01b03881615610eaa575f828152602081815260408083206001600160a01b038c16845290915290205481811015610e84576040516303dee4c560e01b81526001600160a01b038a16600482015260248101829052604481018390526064810184905260840161048f565b5f838152602081815260408083206001600160a01b038d16845290915290209082900390555b6001600160a01b03871615610eee575f828152602081815260408083206001600160a01b038b16845290915281208054839290610ee890849061184e565b90915550505b5050600101610df9565b508251600103610f785760208301515f906020840151909150856001600160a01b0316876001600160a01b0316846001600160a01b03167fc3d58168c5ae7397731d063d5bbf3d657854427343f4c083240f7aacaa2d0f628585604051610f69929190918252602082015260400190565b60405180910390a45050610b16565b836001600160a01b0316856001600160a01b0316826001600160a01b03167f4a39dc06d4c0dbc64b70af90fd698a233a518aa5d07e595d983b8c0526c8f7fb8686604051610fc7929190611861565b60405180910390a45050505050565b6001600160a01b0384163b156103295760405163f23a6e6160e01b81526001600160a01b0385169063f23a6e619061101a908990899088908890889060040161188e565b6020604051808303815f875af1925050508015611054575060408051601f3d908101601f19168201909252611051918101906118d2565b60015b6110bb573d808015611081576040519150601f19603f3d011682016040523d82523d5f602084013e611086565b606091505b5080515f036110b357604051632bfa23e760e11b81526001600160a01b038616600482015260240161048f565b805160208201fd5b6001600160e01b0319811663f23a6e6160e01b14610d6b57604051632bfa23e760e11b81526001600160a01b038616600482015260240161048f565b6001600160a01b0384163b156103295760405163bc197c8160e01b81526001600160a01b0385169063bc197c819061113b90899089908890889088906004016118ed565b6020604051808303815f875af1925050508015611175575060408051601f3d908101601f19168201909252611172918101906118d2565b60015b6111a2573d808015611081576040519150601f19603f3d011682016040523d82523d5f602084013e611086565b6001600160e01b0319811663bc197c8160e01b14610d6b57604051632bfa23e760e11b81526001600160a01b038616600482015260240161048f565b5080545f8255905f5260205f20908101906102559190611242565b828054828255905f5260205f20908101928215611232579160200282015b82811115611232578251825591602001919060010190611217565b5061123e929150611242565b5090565b5b8082111561123e575f8155600101611243565b80356001600160a01b038116811461126c575f80fd5b919050565b5f8060408385031215611282575f80fd5b61128b83611256565b946020939093013593505050565b5f80604083850312156112aa575f80fd5b823591506112ba60208401611256565b90509250929050565b6001600160e01b031981168114610255575f80fd5b5f602082840312156112e8575f80fd5b81356112f3816112c3565b9392505050565b5f6020828403121561130a575f80fd5b5035919050565b5f81518084525f5b8181101561133557602081850181015186830182015201611319565b505f602082860101526020601f19601f83011685010191505092915050565b602081525f6112f36020830184611311565b634e487b7160e01b5f52604160045260245ffd5b604051601f8201601f1916810167ffffffffffffffff811182821017156113a3576113a3611366565b604052919050565b5f67ffffffffffffffff8211156113c4576113c4611366565b5060051b60200190565b5f82601f8301126113dd575f80fd5b813560206113f26113ed836113ab565b61137a565b8083825260208201915060208460051b870101935086841115611413575f80fd5b602086015b8481101561142f5780358352918301918301611418565b509695505050505050565b5f82601f830112611449575f80fd5b813567ffffffffffffffff81111561146357611463611366565b611476601f8201601f191660200161137a565b81815284602083860101111561148a575f80fd5b816020850160208301375f918101602001919091529392505050565b5f805f805f60a086880312156114ba575f80fd5b6114c386611256565b94506114d160208701611256565b9350604086013567ffffffffffffffff808211156114ed575f80fd5b6114f989838a016113ce565b9450606088013591508082111561150e575f80fd5b61151a89838a016113ce565b9350608088013591508082111561152f575f80fd5b5061153c8882890161143a565b9150509295509295909350565b5f806040838503121561155a575f80fd5b823567ffffffffffffffff80821115611571575f80fd5b818501915085601f830112611584575f80fd5b813560206115946113ed836113ab565b82815260059290921b840181019181810190898411156115b2575f80fd5b948201945b838610156115d7576115c886611256565b825294820194908201906115b7565b965050860135925050808211156115ec575f80fd5b506115f9858286016113ce565b9150509250929050565b5f815180845260208085019450602084015f5b8381101561163257815187529582019590820190600101611616565b509495945050505050565b602081525f6112f36020830184611603565b5f6020828403121561165f575f80fd5b6112f382611256565b5f8060408385031215611679575f80fd5b50508035926020909101359150565b5f8060408385031215611699575f80fd5b6116a283611256565b9150602083013580151581146116b6575f80fd5b809150509250929050565b5f805f805f8060c087890312156116d6575f80fd5b6116df87611256565b95506020870135945060408701359350606087013560ff81168114611702575f80fd5b9598949750929560808101359460a0909101359350915050565b5f806040838503121561172d575f80fd5b61173683611256565b91506112ba60208401611256565b5f8060408385031215611755575f80fd5b61175e83611256565b9150602083013563ffffffff811681146116b6575f80fd5b5f805f805f60a0868803121561178a575f80fd5b61179386611256565b94506117a160208701611256565b93506040860135925060608601359150608086013567ffffffffffffffff8111156117ca575f80fd5b61153c8882890161143a565b634e487b7160e01b5f52603260045260245ffd5b600181811c908216806117fe57607f821691505b60208210810361181c57634e487b7160e01b5f52602260045260245ffd5b50919050565b634e487b7160e01b5f52601160045260245ffd5b5f6001820161184757611847611822565b5060010190565b808201808211156103e3576103e3611822565b604081525f6118736040830185611603565b82810360208401526118858185611603565b95945050505050565b6001600160a01b03868116825285166020820152604081018490526060810183905260a0608082018190525f906118c790830184611311565b979650505050505050565b5f602082840312156118e2575f80fd5b81516112f3816112c3565b6001600160a01b0386811682528516602082015260a0604082018190525f9061191890830186611603565b828103606084015261192a8186611603565b9050828103608084015261193e8185611311565b9897505050505050505056fea2646970667358221220ce842bea4c0b6d60030cca073ee47f1a25091112be474138e486a8c19c563df264736f6c6343000818003368747470733a2f2f6170692e66617471756573742e636f6d2f7175657374732f7b69647d2e6a736f6e",
  "linkReferences": {},
  "deployedLinkReferences": {}
}