{
  "_format": "hh-sol-artifact-1",
  "contractName": "EVAI",
  "sourceName": "contracts/EV.AI.sol",
  "abi": [
    {
      "inputs": [
        {
          "internalType": "address",
          "name": "_fatQuestAddress",
          "type": "address"
        },
        {
          "internalType": "address",
          "name": "_axonalBridgeProtocolAddress",
          "type": "address"
        }
      ],
      "stateMutability": "nonpayable",
      "type": "constructor"
    },
    {
      "inputs": [
        {
          "internalType": "uint256",
          "name": "requestId",
          "type": "uint256"
        },
        {
          "internalType": "bytes",
          "name": "data",
          "type": "bytes"
        }
      ],
      "name": "contributeData",
      "outputs": [],
      "stateMutability": "nonpayable",
      "type": "function"
    },
    {
      "inputs": [
        {
          "internalType": "string",
          "name": "description",
          "type": "string"
        }
      ],
      "name": "createDataRequest",
      "outputs": [],
      "stateMutability": "nonpayable",
      "type": "function"
    },
    {
      "inputs": [
        {
          "internalType": "uint256",
          "name": "",
          "type": "uint256"
        }
      ],
      "name": "dataRequests",
      "outputs": [
        {
          "internalType": "address",
          "name": "requester",
          "type": "address"
        },
        {
          "internalType": "string",
          "name": "description",
          "type": "string"
        },
        {
          "internalType": "uint256",
          "name": "axonalBridgeId",
          "type": "uint256"
        }
      ],
      "stateMutability": "view",
      "type": "function"
    }
  ],
  "bytecode": "0x608060405234801561000f575f80fd5b506040516107c33803806107c383398101604081905261002e9161007a565b600180546001600160a01b039384166001600160a01b031991821617909155600280549290931691161790556100ab565b80516001600160a01b0381168114610075575f80fd5b919050565b5f806040838503121561008b575f80fd5b6100948361005f565b91506100a26020840161005f565b90509250929050565b61070b806100b85f395ff3fe608060405234801561000f575f80fd5b506004361061003f575f3560e01c80630332d9b914610043578063c60f97ea1461006e578063d9e446ba14610083575b5f80fd5b610056610051366004610363565b610096565b604051610065939291906103bd565b60405180910390f35b61008161007c366004610477565b610159565b005b6100816100913660046104ce565b61023e565b5f81815481106100a4575f80fd5b5f918252602090912060039091020180546001820180546001600160a01b039092169350906100d29061051b565b80601f01602080910402602001604051908101604052809291908181526020018280546100fe9061051b565b80156101495780601f1061012057610100808354040283529160200191610149565b820191905f5260205f20905b81548152906001019060200180831161012c57829003601f168201915b5050505050908060020154905083565b5f5482106101ad5760405162461bcd60e51b815260206004820152601b60248201527f44617461207265717565737420646f6573206e6f742065786973740000000000604482015260640160405180910390fd5b5f8083815481106101c0576101c0610553565b5f9182526020909120600280546003909302909101908101546040516374c469fb60e11b81529193506001600160a01b039092169163e988d3f69161020c919033908790600401610567565b5f604051808303815f87803b158015610223575f80fd5b505af1158015610235573d5f803e3d5ffd5b50505050505050565b6002546040516350076ce760e11b81525f916001600160a01b03169063a00ed9ce9061026e908590600401610599565b6020604051808303815f875af115801561028a573d5f803e3d5ffd5b505050506040513d601f19601f820116820180604052508101906102ae91906105b2565b60408051606081018252338152602081018581529181018390525f805460018101825590805281517f290decd9548b62a8d60345a988386fc84ba6bc95484008f6362f93160ef3e563600390920291820180546001600160a01b0319166001600160a01b03909216919091178155925193945090927f290decd9548b62a8d60345a988386fc84ba6bc95484008f6362f93160ef3e564909101906103529082610615565b506040820151816002015550505050565b5f60208284031215610373575f80fd5b5035919050565b5f81518084525f5b8181101561039e57602081850181015186830182015201610382565b505f602082860101526020601f19601f83011685010191505092915050565b6001600160a01b03841681526060602082018190525f906103e09083018561037a565b9050826040830152949350505050565b634e487b7160e01b5f52604160045260245ffd5b5f67ffffffffffffffff8084111561041e5761041e6103f0565b604051601f8501601f19908116603f01168101908282118183101715610446576104466103f0565b8160405280935085815286868601111561045e575f80fd5b858560208301375f602087830101525050509392505050565b5f8060408385031215610488575f80fd5b82359150602083013567ffffffffffffffff8111156104a5575f80fd5b8301601f810185136104b5575f80fd5b6104c485823560208401610404565b9150509250929050565b5f602082840312156104de575f80fd5b813567ffffffffffffffff8111156104f4575f80fd5b8201601f81018413610504575f80fd5b61051384823560208401610404565b949350505050565b600181811c9082168061052f57607f821691505b60208210810361054d57634e487b7160e01b5f52602260045260245ffd5b50919050565b634e487b7160e01b5f52603260045260245ffd5b8381526001600160a01b03831660208201526060604082018190525f906105909083018461037a565b95945050505050565b602081525f6105ab602083018461037a565b9392505050565b5f602082840312156105c2575f80fd5b5051919050565b601f82111561061057805f5260205f20601f840160051c810160208510156105ee5750805b601f840160051c820191505b8181101561060d575f81556001016105fa565b50505b505050565b815167ffffffffffffffff81111561062f5761062f6103f0565b6106438161063d845461051b565b846105c9565b602080601f831160018114610676575f841561065f5750858301515b5f19600386901b1c1916600185901b1785556106cd565b5f85815260208120601f198616915b828110156106a457888601518255948401946001909101908401610685565b50858210156106c157878501515f19600388901b60f8161c191681555b505060018460011b0185555b50505050505056fea264697066735822122026f7c1a641bf55ac5faccf6338dce1706f8436051a7f741b62f008a66e7cf92c64736f6c63430008180033",
  "linkReferences": {},
  "deployedLinkReferences": {}
}