{
  "_format": "hh-sol-artifact-1",
  "contractName": "AxonalBridgeProtocol",
  "sourceName": "contracts/AxonalBridgeProtocol.sol",
  "abi": [
    {
      "inputs": [],
      "stateMutability": "nonpayable",
      "type": "constructor"
    },
    {
      "inputs": [
        {
          "internalType": "address",
          "name": "owner",
          "type": "address"
        }
      ],
      "name": "OwnableInvalidOwner",
      "type": "error"
    },
    {
      "inputs": [
        {
          "internalType": "address",
          "name": "account",
          "type": "address"
        }
      ],
      "name": "OwnableUnauthorizedAccount",
      "type": "error"
    },
    {
      "anonymous": false,
      "inputs": [
        {
          "indexed": true,
          "internalType": "address",
          "name": "previousOwner",
          "type": "address"
        },
        {
          "indexed": true,
          "internalType": "address",
          "name": "newOwner",
          "type": "address"
        }
      ],
      "name": "OwnershipTransferred",
      "type": "event"
    },
    {
      "inputs": [
        {
          "internalType": "uint256",
          "name": "bridgeId",
          "type": "uint256"
        }
      ],
      "name": "activateBridge",
      "outputs": [],
      "stateMutability": "nonpayable",
      "type": "function"
    },
    {
      "inputs": [
        {
          "internalType": "uint256",
          "name": "bridgeId",
          "type": "uint256"
        },
        {
          "internalType": "address",
          "name": "contributor",
          "type": "address"
        },
        {
          "internalType": "bytes",
          "name": "data",
          "type": "bytes"
        }
      ],
      "name": "addDataToBridge",
      "outputs": [],
      "stateMutability": "nonpayable",
      "type": "function"
    },
    {
      "inputs": [],
      "name": "bridgeCounter",
      "outputs": [
        {
          "internalType": "uint256",
          "name": "",
          "type": "uint256"
        }
      ],
      "stateMutability": "view",
      "type": "function"
    },
    {
      "inputs": [
        {
          "internalType": "uint256",
          "name": "",
          "type": "uint256"
        }
      ],
      "name": "bridges",
      "outputs": [
        {
          "internalType": "address",
          "name": "creator",
          "type": "address"
        },
        {
          "internalType": "string",
          "name": "metadataUrl",
          "type": "string"
        },
        {
          "internalType": "enum AxonalBridgeProtocol.BridgeStatus",
          "name": "status",
          "type": "uint8"
        }
      ],
      "stateMutability": "view",
      "type": "function"
    },
    {
      "inputs": [
        {
          "internalType": "uint256",
          "name": "bridgeId",
          "type": "uint256"
        }
      ],
      "name": "closeBridge",
      "outputs": [],
      "stateMutability": "nonpayable",
      "type": "function"
    },
    {
      "inputs": [
        {
          "internalType": "string",
          "name": "metadataUrl",
          "type": "string"
        }
      ],
      "name": "createAxonalBridge",
      "outputs": [
        {
          "internalType": "uint256",
          "name": "",
          "type": "uint256"
        }
      ],
      "stateMutability": "nonpayable",
      "type": "function"
    },
    {
      "inputs": [],
      "name": "owner",
      "outputs": [
        {
          "internalType": "address",
          "name": "",
          "type": "address"
        }
      ],
      "stateMutability": "view",
      "type": "function"
    },
    {
      "inputs": [],
      "name": "renounceOwnership",
      "outputs": [],
      "stateMutability": "nonpayable",
      "type": "function"
    },
    {
      "inputs": [
        {
          "internalType": "address",
          "name": "newOwner",
          "type": "address"
        }
      ],
      "name": "transferOwnership",
      "outputs": [],
      "stateMutability": "nonpayable",
      "type": "function"
    }
  ],
  "bytecode": "0x608060405234801561000f575f80fd5b50338061003557604051631e4fbdf760e01b81525f600482015260240160405180910390fd5b61003e81610044565b50610093565b5f80546001600160a01b038381166001600160a01b0319831681178455604051919092169283917f8be0079c531659141344cd1fd0a4f28419497f9722a3daafe3b4186f6b6457e09190a35050565b6107a0806100a05f395ff3fe608060405234801561000f575f80fd5b5060043610610090575f3560e01c8063a3c4470511610063578063a3c44705146100e7578063b68bc1f614610109578063bd4b770d1461011c578063e988d3f61461012f578063f2fde38b14610142575f80fd5b806350c7484314610094578063715018a6146100b05780638da5cb5b146100ba578063a00ed9ce146100d4575b5f80fd5b61009d60025481565b6040519081526020015b60405180910390f35b6100b8610155565b005b5f546040516001600160a01b0390911681526020016100a7565b61009d6100e2366004610470565b610168565b6100fa6100f53660046104bd565b61021c565b6040516100a7939291906104e8565b6100b86101173660046104bd565b6102d2565b6100b861012a3660046104bd565b610304565b6100b861013d36600461057d565b505050565b6100b86101503660046105e3565b61032c565b61015d61036e565b6101665f61039a565b565b5f61017161036e565b60028054905f61018083610603565b909155505060408051606081018252338152602081018490529081015f90526002545f908152600160208181526040909220835181546001600160a01b0319166001600160a01b0390911617815591830151908201906101e090826106aa565b506040820151816002015f6101000a81548160ff0219169083600281111561020a5761020a6104d4565b0217905550506002549150505b919050565b600160208190525f9182526040909120805491810180546001600160a01b039093169261024890610627565b80601f016020809104026020016040519081016040528092919081815260200182805461027490610627565b80156102bf5780601f10610296576101008083540402835291602001916102bf565b820191905f5260205f20905b8154815290600101906020018083116102a257829003601f168201915b5050506002909301549192505060ff1683565b6102da61036e565b5f818152600160208190526040909120600290810180549192909160ff191690835b021790555050565b61030c61036e565b5f818152600160208190526040909120600201805460ff191682806102fc565b61033461036e565b6001600160a01b03811661036257604051631e4fbdf760e01b81525f60048201526024015b60405180910390fd5b61036b8161039a565b50565b5f546001600160a01b031633146101665760405163118cdaa760e01b8152336004820152602401610359565b5f80546001600160a01b038381166001600160a01b0319831681178455604051919092169283917f8be0079c531659141344cd1fd0a4f28419497f9722a3daafe3b4186f6b6457e09190a35050565b634e487b7160e01b5f52604160045260245ffd5b5f67ffffffffffffffff80841115610417576104176103e9565b604051601f8501601f19908116603f0116810190828211818310171561043f5761043f6103e9565b81604052809350858152868686011115610457575f80fd5b858560208301375f602087830101525050509392505050565b5f60208284031215610480575f80fd5b813567ffffffffffffffff811115610496575f80fd5b8201601f810184136104a6575f80fd5b6104b5848235602084016103fd565b949350505050565b5f602082840312156104cd575f80fd5b5035919050565b634e487b7160e01b5f52602160045260245ffd5b60018060a01b03841681525f60206060602084015284518060608501525f5b8181101561052357868101830151858201608001528201610507565b505f608082860101526080601f19601f830116850101925050506003831061055957634e487b7160e01b5f52602160045260245ffd5b826040830152949350505050565b80356001600160a01b0381168114610217575f80fd5b5f805f6060848603121561058f575f80fd5b8335925061059f60208501610567565b9150604084013567ffffffffffffffff8111156105ba575f80fd5b8401601f810186136105ca575f80fd5b6105d9868235602084016103fd565b9150509250925092565b5f602082840312156105f3575f80fd5b6105fc82610567565b9392505050565b5f6001820161062057634e487b7160e01b5f52601160045260245ffd5b5060010190565b600181811c9082168061063b57607f821691505b60208210810361065957634e487b7160e01b5f52602260045260245ffd5b50919050565b601f82111561013d57805f5260205f20601f840160051c810160208510156106845750805b601f840160051c820191505b818110156106a3575f8155600101610690565b5050505050565b815167ffffffffffffffff8111156106c4576106c46103e9565b6106d8816106d28454610627565b8461065f565b602080601f83116001811461070b575f84156106f45750858301515b5f19600386901b1c1916600185901b178555610762565b5f85815260208120601f198616915b828110156107395788860151825594840194600190910190840161071a565b508582101561075657878501515f19600388901b60f8161c191681555b505060018460011b0185555b50505050505056fea2646970667358221220626181601a72a2845f17c763a117f9c0c5cda83ba986b80efce445eeaa4906da64736f6c63430008180033",
  "linkReferences": {},
  "deployedLinkReferences": {}
}