{
  "_format": "hh-sol-artifact-1",
  "contractName": "QuanumisDAO",
  "sourceName": "contracts/QuanumisDAO.sol",
  "abi": [
    {
      "inputs": [
        {
          "internalType": "contract IVotes",
          "name": "_token",
          "type": "address"
        },
        {
          "internalType": "contract TimelockController",
          "name": "_timelock",
          "type": "address"
        }
      ],
      "stateMutability": "nonpayable",
      "type": "constructor"
    },
    {
      "inputs": [],
      "name": "CheckpointUnorderedInsertion",
      "type": "error"
    },
    {
      "inputs": [],
      "name": "FailedCall",
      "type": "error"
    },
    {
      "inputs": [
        {
          "internalType": "address",
          "name": "voter",
          "type": "address"
        }
      ],
      "name": "GovernorAlreadyCastVote",
      "type": "error"
    },
    {
      "inputs": [
        {
          "internalType": "uint256",
          "name": "proposalId",
          "type": "uint256"
        }
      ],
      "name": "GovernorAlreadyQueuedProposal",
      "type": "error"
    },
    {
      "inputs": [],
      "name": "GovernorDisabledDeposit",
      "type": "error"
    },
    {
      "inputs": [
        {
          "internalType": "address",
          "name": "proposer",
          "type": "address"
        },
        {
          "internalType": "uint256",
          "name": "votes",
          "type": "uint256"
        },
        {
          "internalType": "uint256",
          "name": "threshold",
          "type": "uint256"
        }
      ],
      "name": "GovernorInsufficientProposerVotes",
      "type": "error"
    },
    {
      "inputs": [
        {
          "internalType": "uint256",
          "name": "targets",
          "type": "uint256"
        },
        {
          "internalType": "uint256",
          "name": "calldatas",
          "type": "uint256"
        },
        {
          "internalType": "uint256",
          "name": "values",
          "type": "uint256"
        }
      ],
      "name": "GovernorInvalidProposalLength",
      "type": "error"
    },
    {
      "inputs": [
        {
          "internalType": "uint256",
          "name": "quorumNumerator",
          "type": "uint256"
        },
        {
          "internalType": "uint256",
          "name": "quorumDenominator",
          "type": "uint256"
        }
      ],
      "name": "GovernorInvalidQuorumFraction",
      "type": "error"
    },
    {
      "inputs": [
        {
          "internalType": "address",
          "name": "voter",
          "type": "address"
        }
      ],
      "name": "GovernorInvalidSignature",
      "type": "error"
    },
    {
      "inputs": [],
      "name": "GovernorInvalidVoteParams",
      "type": "error"
    },
    {
      "inputs": [],
      "name": "GovernorInvalidVoteType",
      "type": "error"
    },
    {
      "inputs": [
        {
          "internalType": "uint256",
          "name": "votingPeriod",
          "type": "uint256"
        }
      ],
      "name": "GovernorInvalidVotingPeriod",
      "type": "error"
    },
    {
      "inputs": [
        {
          "internalType": "uint256",
          "name": "proposalId",
          "type": "uint256"
        }
      ],
      "name": "GovernorNonexistentProposal",
      "type": "error"
    },
    {
      "inputs": [
        {
          "internalType": "uint256",
          "name": "proposalId",
          "type": "uint256"
        }
      ],
      "name": "GovernorNotQueuedProposal",
      "type": "error"
    },
    {
      "inputs": [
        {
          "internalType": "address",
          "name": "account",
          "type": "address"
        }
      ],
      "name": "GovernorOnlyExecutor",
      "type": "error"
    },
    {
      "inputs": [],
      "name": "GovernorQueueNotImplemented",
      "type": "error"
    },
    {
      "inputs": [
        {
          "internalType": "address",
          "name": "proposer",
          "type": "address"
        }
      ],
      "name": "GovernorRestrictedProposer",
      "type": "error"
    },
    {
      "inputs": [
        {
          "internalType": "uint256",
          "name": "proposalId",
          "type": "uint256"
        },
        {
          "internalType": "address",
          "name": "account",
          "type": "address"
        }
      ],
      "name": "GovernorUnableToCancel",
      "type": "error"
    },
    {
      "inputs": [
        {
          "internalType": "uint256",
          "name": "proposalId",
          "type": "uint256"
        },
        {
          "internalType": "enum IGovernor.ProposalState",
          "name": "current",
          "type": "uint8"
        },
        {
          "internalType": "bytes32",
          "name": "expectedStates",
          "type": "bytes32"
        }
      ],
      "name": "GovernorUnexpectedProposalState",
      "type": "error"
    },
    {
      "inputs": [
        {
          "internalType": "address",
          "name": "account",
          "type": "address"
        },
        {
          "internalType": "uint256",
          "name": "currentNonce",
          "type": "uint256"
        }
      ],
      "name": "InvalidAccountNonce",
      "type": "error"
    },
    {
      "inputs": [],
      "name": "InvalidShortString",
      "type": "error"
    },
    {
      "inputs": [
        {
          "internalType": "uint8",
          "name": "bits",
          "type": "uint8"
        },
        {
          "internalType": "uint256",
          "name": "value",
          "type": "uint256"
        }
      ],
      "name": "SafeCastOverflowedUintDowncast",
      "type": "error"
    },
    {
      "inputs": [
        {
          "internalType": "string",
          "name": "str",
          "type": "string"
        }
      ],
      "name": "StringTooLong",
      "type": "error"
    },
    {
      "anonymous": false,
      "inputs": [],
      "name": "EIP712DomainChanged",
      "type": "event"
    },
    {
      "anonymous": false,
      "inputs": [
        {
          "indexed": false,
          "internalType": "uint256",
          "name": "proposalId",
          "type": "uint256"
        }
      ],
      "name": "ProposalCanceled",
      "type": "event"
    },
    {
      "anonymous": false,
      "inputs": [
        {
          "indexed": false,
          "internalType": "uint256",
          "name": "proposalId",
          "type": "uint256"
        },
        {
          "indexed": false,
          "internalType": "address",
          "name": "proposer",
          "type": "address"
        },
        {
          "indexed": false,
          "internalType": "address[]",
          "name": "targets",
          "type": "address[]"
        },
        {
          "indexed": false,
          "internalType": "uint256[]",
          "name": "values",
          "type": "uint256[]"
        },
        {
          "indexed": false,
          "internalType": "string[]",
          "name": "signatures",
          "type": "string[]"
        },
        {
          "indexed": false,
          "internalType": "bytes[]",
          "name": "calldatas",
          "type": "bytes[]"
        },
        {
          "indexed": false,
          "internalType": "uint256",
          "name": "voteStart",
          "type": "uint256"
        },
        {
          "indexed": false,
          "internalType": "uint256",
          "name": "voteEnd",
          "type": "uint256"
        },
        {
          "indexed": false,
          "internalType": "string",
          "name": "description",
          "type": "string"
        }
      ],
      "name": "ProposalCreated",
      "type": "event"
    },
    {
      "anonymous": false,
      "inputs": [
        {
          "indexed": false,
          "internalType": "uint256",
          "name": "proposalId",
          "type": "uint256"
        }
      ],
      "name": "ProposalExecuted",
      "type": "event"
    },
    {
      "anonymous": false,
      "inputs": [
        {
          "indexed": false,
          "internalType": "uint256",
          "name": "proposalId",
          "type": "uint256"
        },
        {
          "indexed": false,
          "internalType": "uint256",
          "name": "etaSeconds",
          "type": "uint256"
        }
      ],
      "name": "ProposalQueued",
      "type": "event"
    },
    {
      "anonymous": false,
      "inputs": [
        {
          "indexed": false,
          "internalType": "uint256",
          "name": "oldQuorumNumerator",
          "type": "uint256"
        },
        {
          "indexed": false,
          "internalType": "uint256",
          "name": "newQuorumNumerator",
          "type": "uint256"
        }
      ],
      "name": "QuorumNumeratorUpdated",
      "type": "event"
    },
    {
      "anonymous": false,
      "inputs": [
        {
          "indexed": false,
          "internalType": "address",
          "name": "oldTimelock",
          "type": "address"
        },
        {
          "indexed": false,
          "internalType": "address",
          "name": "newTimelock",
          "type": "address"
        }
      ],
      "name": "TimelockChange",
      "type": "event"
    },
    {
      "anonymous": false,
      "inputs": [
        {
          "indexed": true,
          "internalType": "address",
          "name": "voter",
          "type": "address"
        },
        {
          "indexed": false,
          "internalType": "uint256",
          "name": "proposalId",
          "type": "uint256"
        },
        {
          "indexed": false,
          "internalType": "uint8",
          "name": "support",
          "type": "uint8"
        },
        {
          "indexed": false,
          "internalType": "uint256",
          "name": "weight",
          "type": "uint256"
        },
        {
          "indexed": false,
          "internalType": "string",
          "name": "reason",
          "type": "string"
        }
      ],
      "name": "VoteCast",
      "type": "event"
    },
    {
      "anonymous": false,
      "inputs": [
        {
          "indexed": true,
          "internalType": "address",
          "name": "voter",
          "type": "address"
        },
        {
          "indexed": false,
          "internalType": "uint256",
          "name": "proposalId",
          "type": "uint256"
        },
        {
          "indexed": false,
          "internalType": "uint8",
          "name": "support",
          "type": "uint8"
        },
        {
          "indexed": false,
          "internalType": "uint256",
          "name": "weight",
          "type": "uint256"
        },
        {
          "indexed": false,
          "internalType": "string",
          "name": "reason",
          "type": "string"
        },
        {
          "indexed": false,
          "internalType": "bytes",
          "name": "params",
          "type": "bytes"
        }
      ],
      "name": "VoteCastWithParams",
      "type": "event"
    },
    {
      "inputs": [],
      "name": "BALLOT_TYPEHASH",
      "outputs": [
        {
          "internalType": "bytes32",
          "name": "",
          "type": "bytes32"
        }
      ],
      "stateMutability": "view",
      "type": "function"
    },
    {
      "inputs": [],
      "name": "CLOCK_MODE",
      "outputs": [
        {
          "internalType": "string",
          "name": "",
          "type": "string"
        }
      ],
      "stateMutability": "view",
      "type": "function"
    },
    {
      "inputs": [],
      "name": "COUNTING_MODE",
      "outputs": [
        {
          "internalType": "string",
          "name": "",
          "type": "string"
        }
      ],
      "stateMutability": "pure",
      "type": "function"
    },
    {
      "inputs": [],
      "name": "EXTENDED_BALLOT_TYPEHASH",
      "outputs": [
        {
          "internalType": "bytes32",
          "name": "",
          "type": "bytes32"
        }
      ],
      "stateMutability": "view",
      "type": "function"
    },
    {
      "inputs": [
        {
          "internalType": "address[]",
          "name": "targets",
          "type": "address[]"
        },
        {
          "internalType": "uint256[]",
          "name": "values",
          "type": "uint256[]"
        },
        {
          "internalType": "bytes[]",
          "name": "calldatas",
          "type": "bytes[]"
        },
        {
          "internalType": "bytes32",
          "name": "descriptionHash",
          "type": "bytes32"
        }
      ],
      "name": "cancel",
      "outputs": [
        {
          "internalType": "uint256",
          "name": "",
          "type": "uint256"
        }
      ],
      "stateMutability": "nonpayable",
      "type": "function"
    },
    {
      "inputs": [
        {
          "internalType": "uint256",
          "name": "proposalId",
          "type": "uint256"
        },
        {
          "internalType": "uint8",
          "name": "support",
          "type": "uint8"
        }
      ],
      "name": "castVote",
      "outputs": [
        {
          "internalType": "uint256",
          "name": "",
          "type": "uint256"
        }
      ],
      "stateMutability": "nonpayable",
      "type": "function"
    },
    {
      "inputs": [
        {
          "internalType": "uint256",
          "name": "proposalId",
          "type": "uint256"
        },
        {
          "internalType": "uint8",
          "name": "support",
          "type": "uint8"
        },
        {
          "internalType": "address",
          "name": "voter",
          "type": "address"
        },
        {
          "internalType": "bytes",
          "name": "signature",
          "type": "bytes"
        }
      ],
      "name": "castVoteBySig",
      "outputs": [
        {
          "internalType": "uint256",
          "name": "",
          "type": "uint256"
        }
      ],
      "stateMutability": "nonpayable",
      "type": "function"
    },
    {
      "inputs": [
        {
          "internalType": "uint256",
          "name": "proposalId",
          "type": "uint256"
        },
        {
          "internalType": "uint8",
          "name": "support",
          "type": "uint8"
        },
        {
          "internalType": "string",
          "name": "reason",
          "type": "string"
        }
      ],
      "name": "castVoteWithReason",
      "outputs": [
        {
          "internalType": "uint256",
          "name": "",
          "type": "uint256"
        }
      ],
      "stateMutability": "nonpayable",
      "type": "function"
    },
    {
      "inputs": [
        {
          "internalType": "uint256",
          "name": "proposalId",
          "type": "uint256"
        },
        {
          "internalType": "uint8",
          "name": "support",
          "type": "uint8"
        },
        {
          "internalType": "string",
          "name": "reason",
          "type": "string"
        },
        {
          "internalType": "bytes",
          "name": "params",
          "type": "bytes"
        }
      ],
      "name": "castVoteWithReasonAndParams",
      "outputs": [
        {
          "internalType": "uint256",
          "name": "",
          "type": "uint256"
        }
      ],
      "stateMutability": "nonpayable",
      "type": "function"
    },
    {
      "inputs": [
        {
          "internalType": "uint256",
          "name": "proposalId",
          "type": "uint256"
        },
        {
          "internalType": "uint8",
          "name": "support",
          "type": "uint8"
        },
        {
          "internalType": "address",
          "name": "voter",
          "type": "address"
        },
        {
          "internalType": "string",
          "name": "reason",
          "type": "string"
        },
        {
          "internalType": "bytes",
          "name": "params",
          "type": "bytes"
        },
        {
          "internalType": "bytes",
          "name": "signature",
          "type": "bytes"
        }
      ],
      "name": "castVoteWithReasonAndParamsBySig",
      "outputs": [
        {
          "internalType": "uint256",
          "name": "",
          "type": "uint256"
        }
      ],
      "stateMutability": "nonpayable",
      "type": "function"
    },
    {
      "inputs": [],
      "name": "clock",
      "outputs": [
        {
          "internalType": "uint48",
          "name": "",
          "type": "uint48"
        }
      ],
      "stateMutability": "view",
      "type": "function"
    },
    {
      "inputs": [],
      "name": "eip712Domain",
      "outputs": [
        {
          "internalType": "bytes1",
          "name": "fields",
          "type": "bytes1"
        },
        {
          "internalType": "string",
          "name": "name",
          "type": "string"
        },
        {
          "internalType": "string",
          "name": "version",
          "type": "string"
        },
        {
          "internalType": "uint256",
          "name": "chainId",
          "type": "uint256"
        },
        {
          "internalType": "address",
          "name": "verifyingContract",
          "type": "address"
        },
        {
          "internalType": "bytes32",
          "name": "salt",
          "type": "bytes32"
        },
        {
          "internalType": "uint256[]",
          "name": "extensions",
          "type": "uint256[]"
        }
      ],
      "stateMutability": "view",
      "type": "function"
    },
    {
      "inputs": [
        {
          "internalType": "address[]",
          "name": "targets",
          "type": "address[]"
        },
        {
          "internalType": "uint256[]",
          "name": "values",
          "type": "uint256[]"
        },
        {
          "internalType": "bytes[]",
          "name": "calldatas",
          "type": "bytes[]"
        },
        {
          "internalType": "bytes32",
          "name": "descriptionHash",
          "type": "bytes32"
        }
      ],
      "name": "execute",
      "outputs": [
        {
          "internalType": "uint256",
          "name": "",
          "type": "uint256"
        }
      ],
      "stateMutability": "payable",
      "type": "function"
    },
    {
      "inputs": [
        {
          "internalType": "address[]",
          "name": "targets",
          "type": "address[]"
        },
        {
          "internalType": "uint256[]",
          "name": "values",
          "type": "uint256[]"
        },
        {
          "internalType": "bytes[]",
          "name": "calldatas",
          "type": "bytes[]"
        },
        {
          "internalType": "bytes32",
          "name": "descriptionHash",
          "type": "bytes32"
        }
      ],
      "name": "getProposalId",
      "outputs": [
        {
          "internalType": "uint256",
          "name": "",
          "type": "uint256"
        }
      ],
      "stateMutability": "view",
      "type": "function"
    },
    {
      "inputs": [
        {
          "internalType": "address",
          "name": "account",
          "type": "address"
        },
        {
          "internalType": "uint256",
          "name": "timepoint",
          "type": "uint256"
        }
      ],
      "name": "getVotes",
      "outputs": [
        {
          "internalType": "uint256",
          "name": "",
          "type": "uint256"
        }
      ],
      "stateMutability": "view",
      "type": "function"
    },
    {
      "inputs": [
        {
          "internalType": "address",
          "name": "account",
          "type": "address"
        },
        {
          "internalType": "uint256",
          "name": "timepoint",
          "type": "uint256"
        },
        {
          "internalType": "bytes",
          "name": "params",
          "type": "bytes"
        }
      ],
      "name": "getVotesWithParams",
      "outputs": [
        {
          "internalType": "uint256",
          "name": "",
          "type": "uint256"
        }
      ],
      "stateMutability": "view",
      "type": "function"
    },
    {
      "inputs": [
        {
          "internalType": "uint256",
          "name": "proposalId",
          "type": "uint256"
        },
        {
          "internalType": "address",
          "name": "account",
          "type": "address"
        }
      ],
      "name": "hasVoted",
      "outputs": [
        {
          "internalType": "bool",
          "name": "",
          "type": "bool"
        }
      ],
      "stateMutability": "view",
      "type": "function"
    },
    {
      "inputs": [
        {
          "internalType": "address[]",
          "name": "targets",
          "type": "address[]"
        },
        {
          "internalType": "uint256[]",
          "name": "values",
          "type": "uint256[]"
        },
        {
          "internalType": "bytes[]",
          "name": "calldatas",
          "type": "bytes[]"
        },
        {
          "internalType": "bytes32",
          "name": "descriptionHash",
          "type": "bytes32"
        }
      ],
      "name": "hashProposal",
      "outputs": [
        {
          "internalType": "uint256",
          "name": "",
          "type": "uint256"
        }
      ],
      "stateMutability": "pure",
      "type": "function"
    },
    {
      "inputs": [],
      "name": "name",
      "outputs": [
        {
          "internalType": "string",
          "name": "",
          "type": "string"
        }
      ],
      "stateMutability": "view",
      "type": "function"
    },
    {
      "inputs": [
        {
          "internalType": "address",
          "name": "owner",
          "type": "address"
        }
      ],
      "name": "nonces",
      "outputs": [
        {
          "internalType": "uint256",
          "name": "",
          "type": "uint256"
        }
      ],
      "stateMutability": "view",
      "type": "function"
    },
    {
      "inputs": [
        {
          "internalType": "address",
          "name": "",
          "type": "address"
        },
        {
          "internalType": "address",
          "name": "",
          "type": "address"
        },
        {
          "internalType": "uint256[]",
          "name": "",
          "type": "uint256[]"
        },
        {
          "internalType": "uint256[]",
          "name": "",
          "type": "uint256[]"
        },
        {
          "internalType": "bytes",
          "name": "",
          "type": "bytes"
        }
      ],
      "name": "onERC1155BatchReceived",
      "outputs": [
        {
          "internalType": "bytes4",
          "name": "",
          "type": "bytes4"
        }
      ],
      "stateMutability": "nonpayable",
      "type": "function"
    },
    {
      "inputs": [
        {
          "internalType": "address",
          "name": "",
          "type": "address"
        },
        {
          "internalType": "address",
          "name": "",
          "type": "address"
        },
        {
          "internalType": "uint256",
          "name": "",
          "type": "uint256"
        },
        {
          "internalType": "uint256",
          "name": "",
          "type": "uint256"
        },
        {
          "internalType": "bytes",
          "name": "",
          "type": "bytes"
        }
      ],
      "name": "onERC1155Received",
      "outputs": [
        {
          "internalType": "bytes4",
          "name": "",
          "type": "bytes4"
        }
      ],
      "stateMutability": "nonpayable",
      "type": "function"
    },
    {
      "inputs": [
        {
          "internalType": "address",
          "name": "",
          "type": "address"
        },
        {
          "internalType": "address",
          "name": "",
          "type": "address"
        },
        {
          "internalType": "uint256",
          "name": "",
          "type": "uint256"
        },
        {
          "internalType": "bytes",
          "name": "",
          "type": "bytes"
        }
      ],
      "name": "onERC721Received",
      "outputs": [
        {
          "internalType": "bytes4",
          "name": "",
          "type": "bytes4"
        }
      ],
      "stateMutability": "nonpayable",
      "type": "function"
    },
    {
      "inputs": [
        {
          "internalType": "uint256",
          "name": "proposalId",
          "type": "uint256"
        }
      ],
      "name": "proposalDeadline",
      "outputs": [
        {
          "internalType": "uint256",
          "name": "",
          "type": "uint256"
        }
      ],
      "stateMutability": "view",
      "type": "function"
    },
    {
      "inputs": [
        {
          "internalType": "uint256",
          "name": "proposalId",
          "type": "uint256"
        }
      ],
      "name": "proposalEta",
      "outputs": [
        {
          "internalType": "uint256",
          "name": "",
          "type": "uint256"
        }
      ],
      "stateMutability": "view",
      "type": "function"
    },
    {
      "inputs": [
        {
          "internalType": "uint256",
          "name": "proposalId",
          "type": "uint256"
        }
      ],
      "name": "proposalNeedsQueuing",
      "outputs": [
        {
          "internalType": "bool",
          "name": "",
          "type": "bool"
        }
      ],
      "stateMutability": "view",
      "type": "function"
    },
    {
      "inputs": [
        {
          "internalType": "uint256",
          "name": "proposalId",
          "type": "uint256"
        }
      ],
      "name": "proposalProposer",
      "outputs": [
        {
          "internalType": "address",
          "name": "",
          "type": "address"
        }
      ],
      "stateMutability": "view",
      "type": "function"
    },
    {
      "inputs": [
        {
          "internalType": "uint256",
          "name": "proposalId",
          "type": "uint256"
        }
      ],
      "name": "proposalSnapshot",
      "outputs": [
        {
          "internalType": "uint256",
          "name": "",
          "type": "uint256"
        }
      ],
      "stateMutability": "view",
      "type": "function"
    },
    {
      "inputs": [],
      "name": "proposalThreshold",
      "outputs": [
        {
          "internalType": "uint256",
          "name": "",
          "type": "uint256"
        }
      ],
      "stateMutability": "view",
      "type": "function"
    },
    {
      "inputs": [
        {
          "internalType": "uint256",
          "name": "proposalId",
          "type": "uint256"
        }
      ],
      "name": "proposalVotes",
      "outputs": [
        {
          "internalType": "uint256",
          "name": "againstVotes",
          "type": "uint256"
        },
        {
          "internalType": "uint256",
          "name": "forVotes",
          "type": "uint256"
        },
        {
          "internalType": "uint256",
          "name": "abstainVotes",
          "type": "uint256"
        }
      ],
      "stateMutability": "view",
      "type": "function"
    },
    {
      "inputs": [
        {
          "internalType": "address[]",
          "name": "targets",
          "type": "address[]"
        },
        {
          "internalType": "uint256[]",
          "name": "values",
          "type": "uint256[]"
        },
        {
          "internalType": "bytes[]",
          "name": "calldatas",
          "type": "bytes[]"
        },
        {
          "internalType": "string",
          "name": "description",
          "type": "string"
        }
      ],
      "name": "propose",
      "outputs": [
        {
          "internalType": "uint256",
          "name": "",
          "type": "uint256"
        }
      ],
      "stateMutability": "nonpayable",
      "type": "function"
    },
    {
      "inputs": [
        {
          "internalType": "address[]",
          "name": "targets",
          "type": "address[]"
        },
        {
          "internalType": "uint256[]",
          "name": "values",
          "type": "uint256[]"
        },
        {
          "internalType": "bytes[]",
          "name": "calldatas",
          "type": "bytes[]"
        },
        {
          "internalType": "bytes32",
          "name": "descriptionHash",
          "type": "bytes32"
        }
      ],
      "name": "queue",
      "outputs": [
        {
          "internalType": "uint256",
          "name": "",
          "type": "uint256"
        }
      ],
      "stateMutability": "nonpayable",
      "type": "function"
    },
    {
      "inputs": [
        {
          "internalType": "uint256",
          "name": "timepoint",
          "type": "uint256"
        }
      ],
      "name": "quorum",
      "outputs": [
        {
          "internalType": "uint256",
          "name": "",
          "type": "uint256"
        }
      ],
      "stateMutability": "view",
      "type": "function"
    },
    {
      "inputs": [],
      "name": "quorumDenominator",
      "outputs": [
        {
          "internalType": "uint256",
          "name": "",
          "type": "uint256"
        }
      ],
      "stateMutability": "view",
      "type": "function"
    },
    {
      "inputs": [
        {
          "internalType": "uint256",
          "name": "timepoint",
          "type": "uint256"
        }
      ],
      "name": "quorumNumerator",
      "outputs": [
        {
          "internalType": "uint256",
          "name": "",
          "type": "uint256"
        }
      ],
      "stateMutability": "view",
      "type": "function"
    },
    {
      "inputs": [],
      "name": "quorumNumerator",
      "outputs": [
        {
          "internalType": "uint256",
          "name": "",
          "type": "uint256"
        }
      ],
      "stateMutability": "view",
      "type": "function"
    },
    {
      "inputs": [
        {
          "internalType": "address",
          "name": "target",
          "type": "address"
        },
        {
          "internalType": "uint256",
          "name": "value",
          "type": "uint256"
        },
        {
          "internalType": "bytes",
          "name": "data",
          "type": "bytes"
        }
      ],
      "name": "relay",
      "outputs": [],
      "stateMutability": "payable",
      "type": "function"
    },
    {
      "inputs": [
        {
          "internalType": "uint256",
          "name": "proposalId",
          "type": "uint256"
        }
      ],
      "name": "state",
      "outputs": [
        {
          "internalType": "enum IGovernor.ProposalState",
          "name": "",
          "type": "uint8"
        }
      ],
      "stateMutability": "view",
      "type": "function"
    },
    {
      "inputs": [
        {
          "internalType": "bytes4",
          "name": "interfaceId",
          "type": "bytes4"
        }
      ],
      "name": "supportsInterface",
      "outputs": [
        {
          "internalType": "bool",
          "name": "",
          "type": "bool"
        }
      ],
      "stateMutability": "view",
      "type": "function"
    },
    {
      "inputs": [],
      "name": "timelock",
      "outputs": [
        {
          "internalType": "address",
          "name": "",
          "type": "address"
        }
      ],
      "stateMutability": "view",
      "type": "function"
    },
    {
      "inputs": [],
      "name": "token",
      "outputs": [
        {
          "internalType": "contract IERC5805",
          "name": "",
          "type": "address"
        }
      ],
      "stateMutability": "view",
      "type": "function"
    },
    {
      "inputs": [
        {
          "internalType": "uint256",
          "name": "newQuorumNumerator",
          "type": "uint256"
        }
      ],
      "name": "updateQuorumNumerator",
      "outputs": [],
      "stateMutability": "nonpayable",
      "type": "function"
    },
    {
      "inputs": [
        {
          "internalType": "contract TimelockController",
          "name": "newTimelock",
          "type": "address"
        }
      ],
      "name": "updateTimelock",
      "outputs": [],
      "stateMutability": "nonpayable",
      "type": "function"
    },
    {
      "inputs": [],
      "name": "version",
      "outputs": [
        {
          "internalType": "string",
          "name": "",
          "type": "string"
        }
      ],
      "stateMutability": "view",
      "type": "function"
    },
    {
      "inputs": [],
      "name": "votingDelay",
      "outputs": [
        {
          "internalType": "uint256",
          "name": "",
          "type": "uint256"
        }
      ],
      "stateMutability": "pure",
      "type": "function"
    },
    {
      "inputs": [],
      "name": "votingPeriod",
      "outputs": [
        {
          "internalType": "uint256",
          "name": "",
          "type": "uint256"
        }
      ],
      "stateMutability": "pure",
      "type": "function"
    },
    {
      "stateMutability": "payable",
      "type": "receive"
    }
  ],
  "bytecode": "0x61018060405234801562000011575f80fd5b5060405162004960380380620049608339810160408190526200003491620005f9565b806004836040518060400160405280600b81526020016a5175616e756d697344414f60a81b815250806200006d6200015d60201b60201c565b62000079825f62000178565b610120526200008a81600162000178565b61014052815160208084019190912060e052815190820120610100524660a0526200011760e05161010051604080517f8b73c3c69bb8fe3d512ecc4cf759cc79239f7b179b0ffacaa9a75d522b39400f60208201529081019290925260608201524660808201523060a08201525f9060c00160405160208183030381529060405280519060200120905090565b60805250503060c05260036200012e8282620006d4565b50506001600160a01b0316610160526200014881620001b0565b50620001548162000253565b50505062000859565b6040805180820190915260018152603160f81b602082015290565b5f60208351101562000197576200018f83620002bc565b9050620001aa565b81620001a48482620006d4565b5060ff90505b92915050565b606480821115620001e35760405163243e544560e01b815260048101839052602481018290526044015b60405180910390fd5b5f620001ee620002fe565b905062000213620001fe62000319565b62000209856200039a565b60089190620003d3565b505060408051828152602081018590527f0553476bf02ef2726e8ce5ced78d63e26e602e4a2257b1f559418e24b4633997910160405180910390a1505050565b600954604080516001600160a01b03928316815291831660208301527f08f74ea46ef7894f65eabfb5e6e695de773a000b47c529ab559178069b226401910160405180910390a1600980546001600160a01b0319166001600160a01b0392909216919091179055565b5f80829050601f81511115620002e9578260405163305a27a960e01b8152600401620001da9190620007a0565b8051620002f682620007ee565b179392505050565b5f6200030b6008620003ef565b6001600160d01b0316905090565b5f620003256101605190565b6001600160a01b03166391ddadf46040518163ffffffff1660e01b8152600401602060405180830381865afa92505050801562000381575060408051601f3d908101601f191682019092526200037e9181019062000812565b60015b6200039557620003906200043c565b905090565b919050565b5f6001600160d01b03821115620003cf576040516306dfcc6560e41b815260d0600482015260248101839052604401620001da565b5090565b5f80620003e285858562000448565b915091505b935093915050565b80545f908015620004335762000419836200040c60018462000839565b5f91825260209091200190565b54660100000000000090046001600160d01b031662000435565b5f5b9392505050565b5f6200039043620005ad565b82545f90819080156200054f575f62000468876200040c60018562000839565b805490915065ffffffffffff80821691660100000000000090046001600160d01b0316908816821115620004af57604051632520601d60e01b815260040160405180910390fd5b8765ffffffffffff168265ffffffffffff1603620004ed57825465ffffffffffff1666010000000000006001600160d01b0389160217835562000540565b6040805180820190915265ffffffffffff808a1682526001600160d01b03808a1660208085019182528d54600181018f555f8f815291909120945191519092166601000000000000029216919091179101555b9450859350620003e792505050565b50506040805180820190915265ffffffffffff80851682526001600160d01b0380851660208085019182528854600181018a555f8a8152918220955192519093166601000000000000029190931617920191909155905081620003e7565b5f65ffffffffffff821115620003cf576040516306dfcc6560e41b81526030600482015260248101839052604401620001da565b6001600160a01b0381168114620005f6575f80fd5b50565b5f80604083850312156200060b575f80fd5b82516200061881620005e1565b60208401519092506200062b81620005e1565b809150509250929050565b634e487b7160e01b5f52604160045260245ffd5b600181811c908216806200065f57607f821691505b6020821081036200067e57634e487b7160e01b5f52602260045260245ffd5b50919050565b601f821115620006cf57805f5260205f20601f840160051c81016020851015620006ab5750805b601f840160051c820191505b81811015620006cc575f8155600101620006b7565b50505b505050565b81516001600160401b03811115620006f057620006f062000636565b62000708816200070184546200064a565b8462000684565b602080601f8311600181146200073e575f8415620007265750858301515b5f19600386901b1c1916600185901b17855562000798565b5f85815260208120601f198616915b828110156200076e578886015182559484019460019091019084016200074d565b50858210156200078c57878501515f19600388901b60f8161c191681555b505060018460011b0185555b505050505050565b5f602080835283518060208501525f5b81811015620007ce57858101830151858201604001528201620007b0565b505f604082860101526040601f19601f8301168501019250505092915050565b805160208083015191908110156200067e575f1960209190910360031b1b16919050565b5f6020828403121562000823575f80fd5b815165ffffffffffff8116811462000435575f80fd5b81810381811115620001aa57634e487b7160e01b5f52601160045260245ffd5b60805160a05160c05160e0516101005161012051610140516101605161408f620008d15f395f818161092501528181610d7b015281816110c30152818161135c0152611cdd01525f611c2101525f611bf501525f612b3601525f612b0e01525f612a6901525f612a9301525f612abd015261408f5ff3fe608060405260043610610278575f3560e01c80637ecebe001161014a578063b58131b0116100be578063dd4e2ba511610078578063dd4e2ba514610842578063deaaa7cc14610887578063eb9019d4146108ba578063f23a6e61146108d9578063f8ce560a146108f8578063fc0c546a14610917575f80fd5b8063b58131b0146107a3578063bc197c81146107b5578063c01f9e37146107d4578063c28bc2fa146107f3578063c59057e414610806578063d33219b414610825575f80fd5b80639a802a6d1161010f5780639a802a6d146106dd578063a7713a70146106fc578063a890c91014610710578063a8f8a6681461072f578063a9a952941461074e578063ab58fb8e1461076d575f80fd5b80637ecebe001461062557806384b0196e146106595780638ff262e31461068057806391ddadf41461069f57806397c3d334146106ca575f80fd5b80633e4f49e6116101ec57806356781388116101a6578063567813881461056b5780635b8d0e0d1461058a5780635f398a14146105a957806360c4247f146105c85780637b3c71d3146105e75780637d5e81e214610606575f80fd5b80633e4f49e614610461578063438596321461048d578063452115d6146104d55780634bf5d7e9146104f4578063544ffc9c1461050857806354fd4d5014610542575f80fd5b8063150b7a021161023d578063150b7a0214610391578063160cbed7146103c95780632656227d146103e85780632d63f693146103fb5780632fe3e2611461041a5780633932abb11461044d575f80fd5b806301ffc9a7146102b357806302a251a3146102e757806306f3f9e61461030557806306fdde0314610324578063143489d014610345575f80fd5b366102af5730610286610949565b6001600160a01b0316146102ad57604051637485328f60e11b815260040160405180910390fd5b005b5f80fd5b3480156102be575f80fd5b506102d26102cd3660046130db565b610961565b60405190151581526020015b60405180910390f35b3480156102f2575f80fd5b5061c4e05b6040519081526020016102de565b348015610310575f80fd5b506102ad61031f366004613102565b6109cd565b34801561032f575f80fd5b506103386109e1565b6040516102de9190613166565b348015610350575f80fd5b5061037961035f366004613102565b5f908152600460205260409020546001600160a01b031690565b6040516001600160a01b0390911681526020016102de565b34801561039c575f80fd5b506103b06103ab36600461324f565b610a71565b6040516001600160e01b031990911681526020016102de565b3480156103d4575f80fd5b506102f76103e336600461341e565b610ab3565b6102f76103f636600461341e565b610b7f565b348015610406575f80fd5b506102f7610415366004613102565b610ce7565b348015610425575f80fd5b506102f77f3e83946653575f9a39005e1545185629e92736b7528ab20ca3816f315424a81181565b348015610458575f80fd5b50611c206102f7565b34801561046c575f80fd5b5061048061047b366004613102565b610d07565b6040516102de91906134db565b348015610498575f80fd5b506102d26104a73660046134e9565b5f8281526007602090815260408083206001600160a01b038516845260030190915290205460ff1692915050565b3480156104e0575f80fd5b506102f76104ef36600461341e565b610d11565b3480156104ff575f80fd5b50610338610d77565b348015610513575f80fd5b50610527610522366004613102565b610e37565b604080519384526020840192909252908201526060016102de565b34801561054d575f80fd5b506040805180820190915260018152603160f81b6020820152610338565b348015610576575f80fd5b506102f7610585366004613527565b610e5c565b348015610595575f80fd5b506102f76105a4366004613595565b610e83565b3480156105b4575f80fd5b506102f76105c3366004613647565b610f40565b3480156105d3575f80fd5b506102f76105e2366004613102565b610f88565b3480156105f2575f80fd5b506102f76106013660046136c4565b610f94565b348015610611575f80fd5b506102f7610620366004613719565b610fe4565b348015610630575f80fd5b506102f761063f3660046137c5565b6001600160a01b03165f9081526002602052604090205490565b348015610664575f80fd5b5061066d611026565b6040516102de979695949392919061381a565b34801561068b575f80fd5b506102f761069a366004613889565b611068565b3480156106aa575f80fd5b506106b36110c0565b60405165ffffffffffff90911681526020016102de565b3480156106d5575f80fd5b5060646102f7565b3480156106e8575f80fd5b506102f76106f73660046138d6565b611147565b348015610707575f80fd5b506102f761115d565b34801561071b575f80fd5b506102ad61072a3660046137c5565b611176565b34801561073a575f80fd5b506102f761074936600461341e565b611187565b348015610759575f80fd5b506102d2610768366004613102565b611194565b348015610778575f80fd5b506102f7610787366004613102565b5f9081526004602052604090206001015465ffffffffffff1690565b3480156107ae575f80fd5b505f6102f7565b3480156107c0575f80fd5b506103b06107cf36600461392a565b61119c565b3480156107df575f80fd5b506102f76107ee366004613102565b6111df565b6102ad6108013660046139b6565b611221565b348015610811575f80fd5b506102f761082036600461341e565b61129d565b348015610830575f80fd5b506009546001600160a01b0316610379565b34801561084d575f80fd5b506040805180820190915260208082527f737570706f72743d627261766f2671756f72756d3d666f722c6162737461696e90820152610338565b348015610892575f80fd5b506102f77ff2aad550cf55f045cb27e9c559f9889fdfb6e6cdaa032301d6ea397784ae51d781565b3480156108c5575f80fd5b506102f76108d43660046139f5565b6112d6565b3480156108e4575f80fd5b506103b06108f3366004613a1f565b6112f5565b348015610903575f80fd5b506102f7610912366004613102565b611338565b348015610922575f80fd5b507f0000000000000000000000000000000000000000000000000000000000000000610379565b5f61095c6009546001600160a01b031690565b905090565b5f6001600160e01b031982166366defe7760e11b148061099157506001600160e01b031982166332a2ad4360e11b145b806109ac57506001600160e01b03198216630271189760e51b145b806109c757506301ffc9a760e01b6001600160e01b03198316145b92915050565b6109d56113d5565b6109de8161144e565b50565b6060600380546109f090613a82565b80601f0160208091040260200160405190810160405280929190818152602001828054610a1c90613a82565b8015610a675780601f10610a3e57610100808354040283529160200191610a67565b820191905f5260205f20905b815481529060010190602001808311610a4a57829003601f168201915b5050505050905090565b5f30610a7b610949565b6001600160a01b031614610aa257604051637485328f60e11b815260040160405180910390fd5b50630a85bd0160e11b949350505050565b5f80610ac186868686611187565b9050610ad681610ad160046114e3565b611505565b505f610ae58288888888611542565b905065ffffffffffff811615610b5c575f82815260046020908152604091829020600101805465ffffffffffff191665ffffffffffff85169081179091558251858152918201527f9a2e42fd6722813d69113e7d0079d3d940171428df7373df9c7f7617cfda2892910160405180910390a1610b75565b604051634844252360e11b815260040160405180910390fd5b5095945050505050565b5f80610b8d86868686611187565b9050610bad81610b9d60056114e3565b610ba760046114e3565b17611505565b505f818152600460205260409020805460ff60f01b1916600160f01b17905530610bd5610949565b6001600160a01b031614610c5e575f5b8651811015610c5c57306001600160a01b0316878281518110610c0a57610c0a613aba565b60200260200101516001600160a01b031603610c5457610c54858281518110610c3557610c35613aba565b602002602001015180519060200120600561155090919063ffffffff16565b600101610be5565b505b610c6b81878787876115b1565b30610c74610949565b6001600160a01b031614158015610ca057506005546001600160801b03808216600160801b9092041614155b15610caa575f6005555b6040518181527f712ae1383f79ac853f8d882153778e0260ef8f03b504e2866e0593e04d2b291f906020015b60405180910390a195945050505050565b5f90815260046020526040902054600160a01b900465ffffffffffff1690565b5f6109c7826115c5565b5f80610d1f86868686611187565b905033610d2c82826116fe565b610d6057604051638fe5d8a960e01b8152600481018390526001600160a01b03821660248201526044015b60405180910390fd5b610d6c87878787611743565b979650505050505050565b60607f00000000000000000000000000000000000000000000000000000000000000006001600160a01b0316634bf5d7e96040518163ffffffff1660e01b81526004015f60405180830381865afa925050508015610df657506040513d5f823e601f3d908101601f19168201604052610df39190810190613ace565b60015b610e32575060408051808201909152601d81527f6d6f64653d626c6f636b6e756d6265722666726f6d3d64656661756c74000000602082015290565b919050565b5f818152600760205260409020805460018201546002909201549091905b9193909250565b5f80339050610e7b84828560405180602001604052805f815250611750565b949350505050565b5f610ec988888888888080601f0160208091040260200160405190810160405280939291908181526020018383808284375f920191909152508a92508991506117719050565b610ef1576040516394ab6c0760e01b81526001600160a01b0387166004820152602401610d57565b610f3488878988888080601f0160208091040260200160405190810160405280939291908181526020018383808284375f920191909152508a925061183e915050565b98975050505050505050565b5f80339050610d6c87828888888080601f0160208091040260200160405190810160405280939291908181526020018383808284375f920191909152508a925061183e915050565b5f6109c760088361191c565b5f80339050610fda86828787878080601f0160208091040260200160405190810160405280939291908181526020018383808284375f9201919091525061175092505050565b9695505050505050565b5f33610ff08184611969565b6110185760405163d9b3955760e01b81526001600160a01b0382166004820152602401610d57565b5f610d6c87878787866119ed565b5f6060805f805f6060611037611bee565b61103f611c1a565b604080515f80825260208201909252600f60f81b9b939a50919850469750309650945092509050565b5f61107585858585611c47565b61109d576040516394ab6c0760e01b81526001600160a01b0384166004820152602401610d57565b6110b785848660405180602001604052805f815250611750565b95945050505050565b5f7f00000000000000000000000000000000000000000000000000000000000000006001600160a01b03166391ddadf46040518163ffffffff1660e01b8152600401602060405180830381865afa92505050801561113b575060408051601f3d908101601f1916820190925261113891810190613b51565b60015b610e325761095c611cd0565b5f611153848484611cda565b90505b9392505050565b5f6111686008611d6d565b6001600160d01b0316905090565b61117e6113d5565b6109de81611db1565b5f6110b78585858561129d565b5f60016109c7565b5f306111a6610949565b6001600160a01b0316146111cd57604051637485328f60e11b815260040160405180910390fd5b5063bc197c8160e01b95945050505050565b5f8181526004602052604081205461121390600160d01b810463ffffffff1690600160a01b900465ffffffffffff16613b76565b65ffffffffffff1692915050565b6112296113d5565b5f80856001600160a01b0316858585604051611246929190613b95565b5f6040518083038185875af1925050503d805f8114611280576040519150601f19603f3d011682016040523d82523d5f602084013e611285565b606091505b50915091506112948282611e1a565b50505050505050565b5f848484846040516020016112b59493929190613c34565b60408051601f19818403018152919052805160209091012095945050505050565b5f61115683836112f060408051602081019091525f815290565b611cda565b5f306112ff610949565b6001600160a01b03161461132657604051637485328f60e11b815260040160405180910390fd5b5063f23a6e6160e01b95945050505050565b604051632394e7a360e21b8152600481018290525f906109c7906001600160a01b037f00000000000000000000000000000000000000000000000000000000000000001690638e539e8c90602401602060405180830381865afa1580156113a1573d5f803e3d5ffd5b505050506040513d601f19601f820116820180604052508101906113c59190613c7e565b6113ce84610f88565b6064611e36565b336113de610949565b6001600160a01b031614611407576040516347096e4760e01b8152336004820152602401610d57565b30611410610949565b6001600160a01b03161461144c575f803660405161142f929190613b95565b604051809103902090505b806114456005611ee6565b0361143a57505b565b60648082111561147b5760405163243e544560e01b81526004810183905260248101829052604401610d57565b5f61148461115d565b90506114a36114916110c0565b61149a85611f53565b60089190611f8a565b505060408051828152602081018590527f0553476bf02ef2726e8ce5ced78d63e26e602e4a2257b1f559418e24b4633997910160405180910390a1505050565b5f8160078111156114f6576114f66134a7565b600160ff919091161b92915050565b5f8061151084610d07565b90505f8361151d836114e3565b1603611156578381846040516331b75e4d60e01b8152600401610d5793929190613c95565b5f610fda8686868686611fa4565b81546001600160801b03600160801b82048116918116600183019091160361157c5761157c6041612135565b6001600160801b038082165f90815260018086016020526040909120939093558354919092018216600160801b029116179055565b6115be8585858585612146565b5050505050565b5f806115d0836121d6565b905060058160078111156115e6576115e66134a7565b146115f15792915050565b5f838152600a602052604090819020546009549151632c258a9f60e11b81526004810182905290916001600160a01b03169063584b153e90602401602060405180830381865afa158015611647573d5f803e3d5ffd5b505050506040513d601f19601f8201168201806040525081019061166b9190613cb7565b1561167a575060059392505050565b600954604051632ab0f52960e01b8152600481018390526001600160a01b0390911690632ab0f52990602401602060405180830381865afa1580156116c1573d5f803e3d5ffd5b505050506040513d601f19601f820116820180604052508101906116e59190613cb7565b156116f4575060079392505050565b5060029392505050565b5f8061170984610d07565b600781111561171a5761171a6134a7565b1480156111565750505f91825260046020526040909120546001600160a01b0391821691161490565b5f6110b785858585612307565b5f6110b78585858561176c60408051602081019091525f815290565b61183e565b5f610d6c856118387f3e83946653575f9a39005e1545185629e92736b7528ab20ca3816f315424a8118a8a8a6117c38c6001600160a01b03165f90815260026020526040902080546001810190915590565b8b516020808e01919091208c518d83012060405161181d98979695949301968752602087019590955260ff9390931660408601526001600160a01b03919091166060850152608084015260a083015260c082015260e00190565b6040516020818303038152906040528051906020012061239e565b846123ca565b5f61184d86610ad160016114e3565b505f6118628661185c89610ce7565b85611cda565b90505f611872888888858861243a565b905083515f036118c857866001600160a01b03167fb8e138887d0aa13bab447e82de9d5c1777041ecd21ca36ba824ff1e6c07ddda4898884896040516118bb9493929190613cd6565b60405180910390a2610d6c565b866001600160a01b03167fe2babfbac5889a709b63bb7f598b324e08bc5a4fb9ec647fb3cbc9ec07eb87128988848989604051611909959493929190613cfd565b60405180910390a2979650505050505050565b5f805f61192885612536565b9250925050838265ffffffffffff161115611955576119506119498561258e565b86906125c0565b611957565b805b6001600160d01b031695945050505050565b80515f9060348110156119805760019150506109c7565b60131981840101516001600160b01b03198116692370726f706f7365723d60b01b146119b1576001925050506109c7565b5f806119c186602a860386612662565b91509150811580610d6c5750866001600160a01b0316816001600160a01b031614979650505050505050565b5f611a018686868680519060200120611187565b905084518651141580611a1657508351865114155b80611a2057508551155b15611a5557855184518651604051630447b05d60e41b8152600481019390935260248301919091526044820152606401610d57565b5f81815260046020526040902054600160a01b900465ffffffffffff1615611a9e5780611a8182610d07565b6040516331b75e4d60e01b8152610d579291905f90600401613c95565b5f611c20611aaa6110c0565b65ffffffffffff16611abc9190613d36565b90505f61c4e05f84815260046020526040902080546001600160a01b0319166001600160a01b038716178155909150611af48361258e565b815465ffffffffffff91909116600160a01b0265ffffffffffff60a01b19909116178155611b218261270b565b815463ffffffff91909116600160d01b0263ffffffff60d01b1990911617815588517f7d84a6263ae0d98d3329bd7b46bb4e8d6f98cd35a7adb45c274c8b7fd5ebd5e090859087908c908c906001600160401b03811115611b8457611b8461318c565b604051908082528060200260200182016040528015611bb757816020015b6060815260200190600190039081611ba25790505b508c89611bc48a82613d36565b8e604051611bda99989796959493929190613d49565b60405180910390a150505095945050505050565b606061095c7f00000000000000000000000000000000000000000000000000000000000000005f61273b565b606061095c7f0000000000000000000000000000000000000000000000000000000000000000600161273b565b5f6110b7836118387ff2aad550cf55f045cb27e9c559f9889fdfb6e6cdaa032301d6ea397784ae51d7888888611c998a6001600160a01b03165f90815260026020526040902080546001810190915590565b60408051602081019690965285019390935260ff90911660608401526001600160a01b0316608083015260a082015260c00161181d565b5f61095c4361258e565b5f7f0000000000000000000000000000000000000000000000000000000000000000604051630748d63560e31b81526001600160a01b038681166004830152602482018690529190911690633a46b1a890604401602060405180830381865afa158015611d49573d5f803e3d5ffd5b505050506040513d601f19601f820116820180604052508101906111539190613c7e565b80545f908015611da957611d9383611d86600184613e1e565b5f91825260209091200190565b54600160301b90046001600160d01b0316611156565b5f9392505050565b600954604080516001600160a01b03928316815291831660208301527f08f74ea46ef7894f65eabfb5e6e695de773a000b47c529ab559178069b226401910160405180910390a1600980546001600160a01b0319166001600160a01b0392909216919091179055565b606082611e2f57611e2a826127e4565b6109c7565b50806109c7565b5f805f611e43868661280c565b91509150815f03611e6757838181611e5d57611e5d613e31565b0492505050611156565b818411611e7e57611e7e6003851502601118612135565b5f848688095f868103871696879004966002600389028118808a02820302808a02820302808a02820302808a02820302808a02820302808a02909103029181900381900460010185841190960395909502919093039390930492909217029150509392505050565b80545f906001600160801b0380821691600160801b9004168103611f0e57611f0e6031612135565b6001600160801b038181165f908152600185810160205260408220805492905585546fffffffffffffffffffffffffffffffff19169301909116919091179092555090565b5f6001600160d01b03821115611f86576040516306dfcc6560e41b815260d0600482015260248101839052604401610d57565b5090565b5f80611f97858585612828565b915091505b935093915050565b5f8060095f9054906101000a90046001600160a01b03166001600160a01b031663f27a0c926040518163ffffffff1660e01b8152600401602060405180830381865afa158015611ff6573d5f803e3d5ffd5b505050506040513d601f19601f8201168201806040525081019061201a9190613c7e565b90505f3060601b6bffffffffffffffffffffffff1916841860095460405163b1c5f42760e01b81529192506001600160a01b03169063b1c5f4279061206b908a908a908a905f908890600401613e45565b602060405180830381865afa158015612086573d5f803e3d5ffd5b505050506040513d601f19601f820116820180604052508101906120aa9190613c7e565b5f898152600a60205260408082209290925560095491516308f2a0bb60e41b81526001600160a01b0390921691638f2a0bb0916120f4918b918b918b919088908a90600401613e92565b5f604051808303815f87803b15801561210b575f80fd5b505af115801561211d573d5f803e3d5ffd5b50505050610f3482426121309190613d36565b61258e565b634e487b715f52806020526024601cfd5b6009546001600160a01b031663e38335e5348686865f3060601b6bffffffffffffffffffffffff191688186040518763ffffffff1660e01b8152600401612191959493929190613e45565b5f604051808303818588803b1580156121a8575f80fd5b505af11580156121ba573d5f803e3d5ffd5b5050505f9687525050600a602052505060408320929092555050565b5f818152600460205260408120805460ff600160f01b8204811691600160f81b900416811561220a57506007949350505050565b801561221b57506002949350505050565b5f61222586610ce7565b9050805f0361224a57604051636ad0607560e01b815260048101879052602401610d57565b5f6122536110c0565b65ffffffffffff16905080821061227057505f9695505050505050565b5f61227a886111df565b905081811061229157506001979650505050505050565b61229a88612978565b15806122b957505f888152600760205260409020805460019091015411155b156122cc57506003979650505050505050565b5f8881526004602052604090206001015465ffffffffffff165f036122f957506004979650505050505050565b506005979650505050505050565b5f80612315868686866129ae565b5f818152600a60205260409020549091508015610b755760095460405163c4d252f560e01b8152600481018390526001600160a01b039091169063c4d252f5906024015f604051808303815f87803b15801561236f575f80fd5b505af1158015612381573d5f803e3d5ffd5b5050505f838152600a602052604081205550509050949350505050565b5f6109c76123aa612a5d565b8360405161190160f01b8152600281019290925260228201526042902090565b5f836001600160a01b03163b5f03612428575f806123e88585612b86565b5090925090505f816003811115612401576124016134a7565b14801561241f5750856001600160a01b0316826001600160a01b0316145b92505050611156565b612433848484612bcf565b9050611156565b5f8581526007602090815260408083206001600160a01b03881684526003810190925282205460ff161561248c576040516371c6af4960e01b81526001600160a01b0387166004820152602401610d57565b6001600160a01b0386165f9081526003820160205260409020805460ff1916600117905560ff85166124d55783815f015f8282546124ca9190613d36565b9091555061252b9050565b5f1960ff8616016124f35783816001015f8282546124ca9190613d36565b60011960ff8616016125125783816002015f8282546124ca9190613d36565b6040516303599be160e11b815260040160405180910390fd5b509195945050505050565b80545f9081908190808203612554575f805f93509350935050610e55565b5f61256486611d86600185613e1e565b546001955065ffffffffffff81169450600160301b90046001600160d01b03169250610e55915050565b5f65ffffffffffff821115611f86576040516306dfcc6560e41b81526030600482015260248101839052604401610d57565b81545f908181600581111561261c575f6125d984612ca5565b6125e39085613e1e565b5f8881526020902090915081015465ffffffffffff908116908716101561260c5780915061261a565b612617816001613d36565b92505b505b5f61262987878585612dfd565b905080156126565761264087611d86600184613e1e565b54600160301b90046001600160d01b0316610d6c565b505f9695505050505050565b5f80845183118061267257508284115b1561268157505f905080611f9c565b5f61268d856001613d36565b841180156126b5575061060f60f31b6126a98787016020015190565b6001600160f01b031916145b90505f6126c58215156002613ee9565b6126d0906028613d36565b9050806126dd8787613e1e565b036126fe575f806126ef898989612e5c565b9096509450611f9c9350505050565b5f80935093505050611f9c565b5f63ffffffff821115611f86576040516306dfcc6560e41b81526020600482015260248101839052604401610d57565b606060ff83146127555761274e83612f1d565b90506109c7565b81805461276190613a82565b80601f016020809104026020016040519081016040528092919081815260200182805461278d90613a82565b80156127d85780601f106127af576101008083540402835291602001916127d8565b820191905f5260205f20905b8154815290600101906020018083116127bb57829003601f168201915b505050505090506109c7565b8051156127f357805160208201fd5b60405163d6bda27560e01b815260040160405180910390fd5b5f805f1983850993909202808410938190039390930393915050565b82545f908190801561291e575f61284487611d86600185613e1e565b805490915065ffffffffffff80821691600160301b90046001600160d01b031690881682111561288757604051632520601d60e01b815260040160405180910390fd5b8765ffffffffffff168265ffffffffffff16036128c057825465ffffffffffff16600160301b6001600160d01b03891602178355612910565b6040805180820190915265ffffffffffff808a1682526001600160d01b03808a1660208085019182528d54600181018f555f8f81529190912094519151909216600160301b029216919091179101555b9450859350611f9c92505050565b50506040805180820190915265ffffffffffff80851682526001600160d01b0380851660208085019182528854600181018a555f8a815291822095519251909316600160301b029190931617920191909155905081611f9c565b5f818152600760205260408120600281015460018201546129999190613d36565b6129a561091285610ce7565b11159392505050565b5f806129bc86868686611187565b9050612a0a816129cc60076114e3565b6129d660066114e3565b6129e060026114e3565b60016129ed600782613f00565b6129f8906002613ff9565b612a029190613e1e565b181818611505565b505f818152600460205260409081902080546001600160f81b0316600160f81b179055517f789cf55be980739dad1d0699b93b58e806b51c9d96619bfa8fe0a28abaa7b30c90610cd69083815260200190565b5f306001600160a01b037f000000000000000000000000000000000000000000000000000000000000000016148015612ab557507f000000000000000000000000000000000000000000000000000000000000000046145b15612adf57507f000000000000000000000000000000000000000000000000000000000000000090565b61095c604080517f8b73c3c69bb8fe3d512ecc4cf759cc79239f7b179b0ffacaa9a75d522b39400f60208201527f0000000000000000000000000000000000000000000000000000000000000000918101919091527f000000000000000000000000000000000000000000000000000000000000000060608201524660808201523060a08201525f9060c00160405160208183030381529060405280519060200120905090565b5f805f8351604103612bbd576020840151604085015160608601515f1a612baf88828585612f5a565b955095509550505050612bc8565b505081515f91506002905b9250925092565b5f805f856001600160a01b03168585604051602401612bef929190614007565b60408051601f198184030181529181526020820180516001600160e01b0316630b135d3f60e11b17905251612c24919061401f565b5f60405180830381855afa9150503d805f8114612c5c576040519150601f19603f3d011682016040523d82523d5f602084013e612c61565b606091505b5091509150818015612c7557506020815110155b8015610fda57508051630b135d3f60e11b90612c9a9083016020908101908401613c7e565b149695505050505050565b5f60018211612cb2575090565b816001600160801b8210612ccb5760809190911c9060401b5b680100000000000000008210612ce65760409190911c9060201b5b6401000000008210612cfd5760209190911c9060101b5b620100008210612d125760109190911c9060081b5b6101008210612d265760089190911c9060041b5b60108210612d395760049190911c9060021b5b60048210612d455760011b5b600302600190811c90818581612d5d57612d5d613e31565b048201901c90506001818581612d7557612d75613e31565b048201901c90506001818581612d8d57612d8d613e31565b048201901c90506001818581612da557612da5613e31565b048201901c90506001818581612dbd57612dbd613e31565b048201901c90506001818581612dd557612dd5613e31565b048201901c9050612df4818581612dee57612dee613e31565b04821190565b90039392505050565b5f5b81831015612e54575f612e128484613022565b5f8781526020902090915065ffffffffffff86169082015465ffffffffffff161115612e4057809250612e4e565b612e4b816001613d36565b93505b50612dff565b509392505050565b5f808481612e6b866001613d36565b85118015612e93575061060f60f31b612e878388016020015190565b6001600160f01b031916145b90505f612ea38215156002613ee9565b90505f80612eb1838a613d36565b90505b87811015612f0c575f612ed2612ecd8784016020015190565b61303c565b9050600f8160ff161115612ef1575f8097509750505050505050611f9c565b612efc601084613ee9565b60ff909116019150600101612eb4565b506001999098509650505050505050565b60605f612f29836130b4565b6040805160208082528183019092529192505f91906020820181803683375050509182525060208101929092525090565b5f80807f7fffffffffffffffffffffffffffffff5d576e7357a4501ddfe92f46681b20a0841115612f9357505f91506003905082613018565b604080515f808252602082018084528a905260ff891692820192909252606081018790526080810186905260019060a0016020604051602081039080840390855afa158015612fe4573d5f803e3d5ffd5b5050604051601f1901519150506001600160a01b03811661300f57505f925060019150829050613018565b92505f91508190505b9450945094915050565b5f613030600284841861403a565b61115690848416613d36565b5f60f882901c602f811180156130555750603a8160ff16105b1561306357602f19016109c7565b60608160ff16118015613079575060678160ff16105b1561308757605619016109c7565b60408160ff1611801561309d575060478160ff16105b156130ab57603619016109c7565b5060ff92915050565b5f60ff8216601f8111156109c757604051632cd44ac360e21b815260040160405180910390fd5b5f602082840312156130eb575f80fd5b81356001600160e01b031981168114611156575f80fd5b5f60208284031215613112575f80fd5b5035919050565b5f5b8381101561313357818101518382015260200161311b565b50505f910152565b5f8151808452613152816020860160208601613119565b601f01601f19169290920160200192915050565b602081525f611156602083018461313b565b6001600160a01b03811681146109de575f80fd5b634e487b7160e01b5f52604160045260245ffd5b604051601f8201601f191681016001600160401b03811182821017156131c8576131c861318c565b604052919050565b5f6001600160401b038211156131e8576131e861318c565b50601f01601f191660200190565b5f613208613203846131d0565b6131a0565b905082815283838301111561321b575f80fd5b828260208301375f602084830101529392505050565b5f82601f830112613240575f80fd5b611156838335602085016131f6565b5f805f8060808587031215613262575f80fd5b843561326d81613178565b9350602085013561327d81613178565b92506040850135915060608501356001600160401b0381111561329e575f80fd5b6132aa87828801613231565b91505092959194509250565b5f6001600160401b038211156132ce576132ce61318c565b5060051b60200190565b5f82601f8301126132e7575f80fd5b813560206132f7613203836132b6565b8083825260208201915060208460051b870101935086841115613318575f80fd5b602086015b8481101561333d57803561333081613178565b835291830191830161331d565b509695505050505050565b5f82601f830112613357575f80fd5b81356020613367613203836132b6565b8083825260208201915060208460051b870101935086841115613388575f80fd5b602086015b8481101561333d578035835291830191830161338d565b5f82601f8301126133b3575f80fd5b813560206133c3613203836132b6565b82815260059290921b840181019181810190868411156133e1575f80fd5b8286015b8481101561333d5780356001600160401b03811115613402575f80fd5b6134108986838b0101613231565b8452509183019183016133e5565b5f805f8060808587031215613431575f80fd5b84356001600160401b0380821115613447575f80fd5b613453888389016132d8565b95506020870135915080821115613468575f80fd5b61347488838901613348565b94506040870135915080821115613489575f80fd5b50613496878288016133a4565b949793965093946060013593505050565b634e487b7160e01b5f52602160045260245ffd5b600881106134d757634e487b7160e01b5f52602160045260245ffd5b9052565b602081016109c782846134bb565b5f80604083850312156134fa575f80fd5b82359150602083013561350c81613178565b809150509250929050565b803560ff81168114610e32575f80fd5b5f8060408385031215613538575f80fd5b8235915061354860208401613517565b90509250929050565b5f8083601f840112613561575f80fd5b5081356001600160401b03811115613577575f80fd5b60208301915083602082850101111561358e575f80fd5b9250929050565b5f805f805f805f60c0888a0312156135ab575f80fd5b873596506135bb60208901613517565b955060408801356135cb81613178565b945060608801356001600160401b03808211156135e6575f80fd5b6135f28b838c01613551565b909650945060808a013591508082111561360a575f80fd5b6136168b838c01613231565b935060a08a013591508082111561362b575f80fd5b506136388a828b01613231565b91505092959891949750929550565b5f805f805f6080868803121561365b575f80fd5b8535945061366b60208701613517565b935060408601356001600160401b0380821115613686575f80fd5b61369289838a01613551565b909550935060608801359150808211156136aa575f80fd5b506136b788828901613231565b9150509295509295909350565b5f805f80606085870312156136d7575f80fd5b843593506136e760208601613517565b925060408501356001600160401b03811115613701575f80fd5b61370d87828801613551565b95989497509550505050565b5f805f806080858703121561372c575f80fd5b84356001600160401b0380821115613742575f80fd5b61374e888389016132d8565b95506020870135915080821115613763575f80fd5b61376f88838901613348565b94506040870135915080821115613784575f80fd5b613790888389016133a4565b935060608701359150808211156137a5575f80fd5b508501601f810187136137b6575f80fd5b6132aa878235602084016131f6565b5f602082840312156137d5575f80fd5b813561115681613178565b5f815180845260208085019450602084015f5b8381101561380f578151875295820195908201906001016137f3565b509495945050505050565b60ff60f81b8816815260e060208201525f61383860e083018961313b565b828103604084015261384a818961313b565b606084018890526001600160a01b038716608085015260a0840186905283810360c0850152905061387b81856137e0565b9a9950505050505050505050565b5f805f806080858703121561389c575f80fd5b843593506138ac60208601613517565b925060408501356138bc81613178565b915060608501356001600160401b0381111561329e575f80fd5b5f805f606084860312156138e8575f80fd5b83356138f381613178565b92506020840135915060408401356001600160401b03811115613914575f80fd5b61392086828701613231565b9150509250925092565b5f805f805f60a0868803121561393e575f80fd5b853561394981613178565b9450602086013561395981613178565b935060408601356001600160401b0380821115613974575f80fd5b61398089838a01613348565b94506060880135915080821115613995575f80fd5b6139a189838a01613348565b935060808801359150808211156136aa575f80fd5b5f805f80606085870312156139c9575f80fd5b84356139d481613178565b93506020850135925060408501356001600160401b03811115613701575f80fd5b5f8060408385031215613a06575f80fd5b8235613a1181613178565b946020939093013593505050565b5f805f805f60a08688031215613a33575f80fd5b8535613a3e81613178565b94506020860135613a4e81613178565b9350604086013592506060860135915060808601356001600160401b03811115613a76575f80fd5b6136b788828901613231565b600181811c90821680613a9657607f821691505b602082108103613ab457634e487b7160e01b5f52602260045260245ffd5b50919050565b634e487b7160e01b5f52603260045260245ffd5b5f60208284031215613ade575f80fd5b81516001600160401b03811115613af3575f80fd5b8201601f81018413613b03575f80fd5b8051613b11613203826131d0565b818152856020838501011115613b25575f80fd5b6110b7826020830160208601613119565b634e487b7160e01b5f52601160045260245ffd5b5092915050565b5f60208284031215613b61575f80fd5b815165ffffffffffff81168114611156575f80fd5b65ffffffffffff818116838216019080821115613b4a57613b4a613b36565b818382375f9101908152919050565b5f815180845260208085019450602084015f5b8381101561380f5781516001600160a01b031687529582019590820190600101613bb7565b5f8282518085526020808601955060208260051b840101602086015f5b84811015613c2757601f19868403018952613c1583835161313b565b98840198925090830190600101613bf9565b5090979650505050505050565b608081525f613c466080830187613ba4565b8281036020840152613c5881876137e0565b90508281036040840152613c6c8186613bdc565b91505082606083015295945050505050565b5f60208284031215613c8e575f80fd5b5051919050565b83815260608101613ca960208301856134bb565b826040830152949350505050565b5f60208284031215613cc7575f80fd5b81518015158114611156575f80fd5b84815260ff84166020820152826040820152608060608201525f610fda608083018461313b565b85815260ff8516602082015283604082015260a060608201525f613d2460a083018561313b565b8281036080840152610f34818561313b565b808201808211156109c7576109c7613b36565b5f6101208b8352602060018060a01b038c1681850152816040850152613d718285018c613ba4565b91508382036060850152613d85828b6137e0565b915083820360808501528189518084528284019150828160051b850101838c015f5b83811015613dd557601f19878403018552613dc383835161313b565b94860194925090850190600101613da7565b505086810360a0880152613de9818c613bdc565b9450505050508560c08401528460e0840152828103610100840152613e0e818561313b565b9c9b505050505050505050505050565b818103818111156109c7576109c7613b36565b634e487b7160e01b5f52601260045260245ffd5b60a081525f613e5760a0830188613ba4565b8281036020840152613e6981886137e0565b90508281036040840152613e7d8187613bdc565b60608401959095525050608001529392505050565b60c081525f613ea460c0830189613ba4565b8281036020840152613eb681896137e0565b90508281036040840152613eca8188613bdc565b60608401969096525050608081019290925260a0909101529392505050565b80820281158282048414176109c7576109c7613b36565b60ff81811683821601908111156109c7576109c7613b36565b600181815b80851115613f5357815f1904821115613f3957613f39613b36565b80851615613f4657918102915b93841c9390800290613f1e565b509250929050565b5f82613f69575060016109c7565b81613f7557505f6109c7565b8160018114613f8b5760028114613f9557613fb1565b60019150506109c7565b60ff841115613fa657613fa6613b36565b50506001821b6109c7565b5060208310610133831016604e8410600b8410161715613fd4575081810a6109c7565b613fde8383613f19565b805f1904821115613ff157613ff1613b36565b029392505050565b5f61115660ff841683613f5b565b828152604060208201525f611153604083018461313b565b5f8251614030818460208701613119565b9190910192915050565b5f8261405457634e487b7160e01b5f52601260045260245ffd5b50049056fea2646970667358221220fd25a8c950201b57643b0151f575757cf92dbfe579d96eaf8578fbe51c1b8e3464736f6c63430008180033",
  "linkReferences": {},
  "deployedLinkReferences": {}
}