{
  "_format": "hh-sol-artifact-1",
  "contractName": "QuanumisMultiversity",
  "sourceName": "contracts/QuanumisMultiversity.sol",
  "abi": [
    {
      "inputs": [
        {
          "internalType": "address",
          "name": "_fatQuestAddress",
          "type": "address"
        },
        {
          "internalType": "address",
          "name": "_axonalBridgeProtocolAddress",
          "type": "address"
        }
      ],
      "stateMutability": "nonpayable",
      "type": "constructor"
    },
    {
      "inputs": [
        {
          "internalType": "uint256",
          "name": "pathId",
          "type": "uint256"
        },
        {
          "internalType": "string",
          "name": "moduleDescription",
          "type": "string"
        },
        {
          "internalType": "bytes",
          "name": "moduleData",
          "type": "bytes"
        }
      ],
      "name": "addModuleToLearningPath",
      "outputs": [],
      "stateMutability": "nonpayable",
      "type": "function"
    },
    {
      "inputs": [
        {
          "internalType": "string",
          "name": "description",
          "type": "string"
        }
      ],
      "name": "createLearningPath",
      "outputs": [],
      "stateMutability": "nonpayable",
      "type": "function"
    },
    {
      "inputs": [
        {
          "internalType": "uint256",
          "name": "",
          "type": "uint256"
        }
      ],
      "name": "learningPaths",
      "outputs": [
        {
          "internalType": "address",
          "name": "student",
          "type": "address"
        },
        {
          "internalType": "string",
          "name": "description",
          "type": "string"
        },
        {
          "internalType": "uint256",
          "name": "axonalBridgeId",
          "type": "uint256"
        }
      ],
      "stateMutability": "view",
      "type": "function"
    }
  ],
  "bytecode": "0x608060405234801561000f575f80fd5b506040516107f33803806107f383398101604081905261002e9161007a565b600180546001600160a01b039384166001600160a01b031991821617909155600280549290931691161790556100ab565b80516001600160a01b0381168114610075575f80fd5b919050565b5f806040838503121561008b575f80fd5b6100948361005f565b91506100a26020840161005f565b90509250929050565b61073b806100b85f395ff3fe608060405234801561000f575f80fd5b506004361061003f575f3560e01c80633a7df95f146100435780634389022c1461006e57806344a8f5fa14610083575b5f80fd5b610056610051366004610364565b610096565b604051610065939291906103be565b60405180910390f35b61008161007c36600461049d565b610159565b005b610081610091366004610518565b61023f565b5f81815481106100a4575f80fd5b5f918252602090912060039091020180546001820180546001600160a01b039092169350906100d290610552565b80601f01602080910402602001604051908101604052809291908181526020018280546100fe90610552565b80156101495780601f1061012057610100808354040283529160200191610149565b820191905f5260205f20905b81548152906001019060200180831161012c57829003601f168201915b5050505050908060020154905083565b5f5483106101ad5760405162461bcd60e51b815260206004820152601c60248201527f4c6561726e696e67207061746820646f6573206e6f7420657869737400000000604482015260640160405180910390fd5b5f8084815481106101c0576101c061058a565b5f9182526020909120600280546003909302909101908101546040516374c469fb60e11b81529193506001600160a01b039092169163e988d3f69161020c91903390879060040161059e565b5f604051808303815f87803b158015610223575f80fd5b505af1158015610235573d5f803e3d5ffd5b5050505050505050565b6002546040516350076ce760e11b81525f916001600160a01b03169063a00ed9ce9061026f9085906004016105d0565b6020604051808303815f875af115801561028b573d5f803e3d5ffd5b505050506040513d601f19601f820116820180604052508101906102af91906105e2565b60408051606081018252338152602081018581529181018390525f805460018101825590805281517f290decd9548b62a8d60345a988386fc84ba6bc95484008f6362f93160ef3e563600390920291820180546001600160a01b0319166001600160a01b03909216919091178155925193945090927f290decd9548b62a8d60345a988386fc84ba6bc95484008f6362f93160ef3e564909101906103539082610645565b506040820151816002015550505050565b5f60208284031215610374575f80fd5b5035919050565b5f81518084525f5b8181101561039f57602081850181015186830182015201610383565b505f602082860101526020601f19601f83011685010191505092915050565b6001600160a01b03841681526060602082018190525f906103e19083018561037b565b9050826040830152949350505050565b634e487b7160e01b5f52604160045260245ffd5b5f67ffffffffffffffff8084111561041f5761041f6103f1565b604051601f8501601f19908116603f01168101908282118183101715610447576104476103f1565b8160405280935085815286868601111561045f575f80fd5b858560208301375f602087830101525050509392505050565b5f82601f830112610487575f80fd5b61049683833560208501610405565b9392505050565b5f805f606084860312156104af575f80fd5b83359250602084013567ffffffffffffffff808211156104cd575f80fd5b6104d987838801610478565b935060408601359150808211156104ee575f80fd5b508401601f810186136104ff575f80fd5b61050e86823560208401610405565b9150509250925092565b5f60208284031215610528575f80fd5b813567ffffffffffffffff81111561053e575f80fd5b61054a84828501610478565b949350505050565b600181811c9082168061056657607f821691505b60208210810361058457634e487b7160e01b5f52602260045260245ffd5b50919050565b634e487b7160e01b5f52603260045260245ffd5b8381526001600160a01b03831660208201526060604082018190525f906105c79083018461037b565b95945050505050565b602081525f610496602083018461037b565b5f602082840312156105f2575f80fd5b5051919050565b601f82111561064057805f5260205f20601f840160051c8101602085101561061e5750805b601f840160051c820191505b8181101561063d575f815560010161062a565b50505b505050565b815167ffffffffffffffff81111561065f5761065f6103f1565b6106738161066d8454610552565b846105f9565b602080601f8311600181146106a6575f841561068f5750858301515b5f19600386901b1c1916600185901b1785556106fd565b5f85815260208120601f198616915b828110156106d4578886015182559484019460019091019084016106b5565b50858210156106f157878501515f19600388901b60f8161c191681555b505060018460011b0185555b50505050505056fea2646970667358221220baa6968ceb7ba79fdc84beb8e2042e356887e5d2d11ea13d0cd665f6c4018dc264736f6c63430008180033",
  "linkReferences": {},
  "deployedLinkReferences": {}
}