{
  "_format": "hh-sol-artifact-1",
  "contractName": "ProjectSynergy",
  "sourceName": "contracts/ProjectSynergy.sol",
  "abi": [
    {
      "inputs": [
        {
          "internalType": "address",
          "name": "_fatQuestAddress",
          "type": "address"
        },
        {
          "internalType": "address",
          "name": "_axonalBridgeProtocolAddress",
          "type": "address"
        }
      ],
      "stateMutability": "nonpayable",
      "type": "constructor"
    },
    {
      "inputs": [
        {
          "internalType": "uint256",
          "name": "projectId",
          "type": "uint256"
        },
        {
          "internalType": "string",
          "name": "componentDescription",
          "type": "string"
        },
        {
          "internalType": "bytes",
          "name": "componentData",
          "type": "bytes"
        }
      ],
      "name": "addComponentToProject",
      "outputs": [],
      "stateMutability": "nonpayable",
      "type": "function"
    },
    {
      "inputs": [
        {
          "internalType": "string",
          "name": "description",
          "type": "string"
        }
      ],
      "name": "createProject",
      "outputs": [],
      "stateMutability": "nonpayable",
      "type": "function"
    },
    {
      "inputs": [
        {
          "internalType": "uint256",
          "name": "",
          "type": "uint256"
        }
      ],
      "name": "projects",
      "outputs": [
        {
          "internalType": "address",
          "name": "creator",
          "type": "address"
        },
        {
          "internalType": "string",
          "name": "description",
          "type": "string"
        },
        {
          "internalType": "uint256",
          "name": "axonalBridgeId",
          "type": "uint256"
        }
      ],
      "stateMutability": "view",
      "type": "function"
    }
  ],
  "bytecode": "0x608060405234801561000f575f80fd5b506040516107ec3803806107ec83398101604081905261002e9161007a565b600180546001600160a01b039384166001600160a01b031991821617909155600280549290931691161790556100ab565b80516001600160a01b0381168114610075575f80fd5b919050565b5f806040838503121561008b575f80fd5b6100948361005f565b91506100a26020840161005f565b90509250929050565b610734806100b85f395ff3fe608060405234801561000f575f80fd5b506004361061003f575f3560e01c8063107046bd1461004357806315ee4df11461006e5780637c70663514610083575b5f80fd5b61005661005136600461035d565b610096565b604051610065939291906103b7565b60405180910390f35b61008161007c366004610496565b610159565b005b6100816100913660046104d0565b61027e565b5f81815481106100a4575f80fd5b5f918252602090912060039091020180546001820180546001600160a01b039092169350906100d29061054b565b80601f01602080910402602001604051908101604052809291908181526020018280546100fe9061054b565b80156101495780601f1061012057610100808354040283529160200191610149565b820191905f5260205f20905b81548152906001019060200180831161012c57829003601f168201915b5050505050908060020154905083565b6002546040516350076ce760e11b81525f916001600160a01b03169063a00ed9ce90610189908590600401610583565b6020604051808303815f875af11580156101a5573d5f803e3d5ffd5b505050506040513d601f19601f820116820180604052508101906101c99190610595565b60408051606081018252338152602081018581529181018390525f805460018101825590805281517f290decd9548b62a8d60345a988386fc84ba6bc95484008f6362f93160ef3e563600390920291820180546001600160a01b0319166001600160a01b03909216919091178155925193945090927f290decd9548b62a8d60345a988386fc84ba6bc95484008f6362f93160ef3e5649091019061026d90826105f8565b506040820151816002015550505050565b5f5483106102cb5760405162461bcd60e51b8152602060048201526016602482015275141c9bda9958dd08191bd95cc81b9bdd08195e1a5cdd60521b604482015260640160405180910390fd5b5f8084815481106102de576102de6106b8565b5f9182526020909120600280546003909302909101908101546040516374c469fb60e11b81529193506001600160a01b039092169163e988d3f69161032a9190339087906004016106cc565b5f604051808303815f87803b158015610341575f80fd5b505af1158015610353573d5f803e3d5ffd5b5050505050505050565b5f6020828403121561036d575f80fd5b5035919050565b5f81518084525f5b818110156103985760208185018101518683018201520161037c565b505f602082860101526020601f19601f83011685010191505092915050565b6001600160a01b03841681526060602082018190525f906103da90830185610374565b9050826040830152949350505050565b634e487b7160e01b5f52604160045260245ffd5b5f67ffffffffffffffff80841115610418576104186103ea565b604051601f8501601f19908116603f01168101908282118183101715610440576104406103ea565b81604052809350858152868686011115610458575f80fd5b858560208301375f602087830101525050509392505050565b5f82601f830112610480575f80fd5b61048f838335602085016103fe565b9392505050565b5f602082840312156104a6575f80fd5b813567ffffffffffffffff8111156104bc575f80fd5b6104c884828501610471565b949350505050565b5f805f606084860312156104e2575f80fd5b83359250602084013567ffffffffffffffff80821115610500575f80fd5b61050c87838801610471565b93506040860135915080821115610521575f80fd5b508401601f81018613610532575f80fd5b610541868235602084016103fe565b9150509250925092565b600181811c9082168061055f57607f821691505b60208210810361057d57634e487b7160e01b5f52602260045260245ffd5b50919050565b602081525f61048f6020830184610374565b5f602082840312156105a5575f80fd5b5051919050565b601f8211156105f357805f5260205f20601f840160051c810160208510156105d15750805b601f840160051c820191505b818110156105f0575f81556001016105dd565b50505b505050565b815167ffffffffffffffff811115610612576106126103ea565b61062681610620845461054b565b846105ac565b602080601f831160018114610659575f84156106425750858301515b5f19600386901b1c1916600185901b1785556106b0565b5f85815260208120601f198616915b8281101561068757888601518255948401946001909101908401610668565b50858210156106a457878501515f19600388901b60f8161c191681555b505060018460011b0185555b505050505050565b634e487b7160e01b5f52603260045260245ffd5b8381526001600160a01b03831660208201526060604082018190525f906106f590830184610374565b9594505050505056fea264697066735822122025bf95ab861093275881e1060162a49c0d3a434b07e4c4d7f7d113609c7627a564736f6c63430008180033",
  "linkReferences": {},
  "deployedLinkReferences": {}
}