{
  "_format": "hh-sol-artifact-1",
  "contractName": "OrganicBonds",
  "sourceName": "contracts/OrganicBonds.sol",
  "abi": [
    {
      "inputs": [
        {
          "internalType": "address",
          "name": "_fatQuestAddress",
          "type": "address"
        },
        {
          "internalType": "address",
          "name": "_axonalBridgeProtocolAddress",
          "type": "address"
        }
      ],
      "stateMutability": "nonpayable",
      "type": "constructor"
    },
    {
      "inputs": [
        {
          "internalType": "uint256",
          "name": "contributionId",
          "type": "uint256"
        },
        {
          "internalType": "uint256",
          "name": "rating",
          "type": "uint256"
        }
      ],
      "name": "rateWisdom",
      "outputs": [],
      "stateMutability": "nonpayable",
      "type": "function"
    },
    {
      "inputs": [
        {
          "internalType": "string",
          "name": "wisdom",
          "type": "string"
        }
      ],
      "name": "shareWisdom",
      "outputs": [],
      "stateMutability": "nonpayable",
      "type": "function"
    },
    {
      "inputs": [
        {
          "internalType": "uint256",
          "name": "",
          "type": "uint256"
        }
      ],
      "name": "wisdomContributions",
      "outputs": [
        {
          "internalType": "address",
          "name": "contributor",
          "type": "address"
        },
        {
          "internalType": "string",
          "name": "wisdom",
          "type": "string"
        },
        {
          "internalType": "uint256",
          "name": "axonalBridgeId",
          "type": "uint256"
        }
      ],
      "stateMutability": "view",
      "type": "function"
    }
  ],
  "bytecode": "0x608060405234801561000f575f80fd5b506040516106a43803806106a483398101604081905261002e9161007a565b600180546001600160a01b039384166001600160a01b031991821617909155600280549290931691161790556100ab565b80516001600160a01b0381168114610075575f80fd5b919050565b5f806040838503121561008b575f80fd5b6100948361005f565b91506100a26020840161005f565b90509250929050565b6105ec806100b85f395ff3fe608060405234801561000f575f80fd5b506004361061003f575f3560e01c80630cbd0e3d14610043578063839582ad1461006e578063b5e7ec5414610083575b5f80fd5b6100566100513660046102d6565b610096565b60405161006593929190610330565b60405180910390f35b61008161007c366004610363565b610159565b005b610081610091366004610397565b6101b1565b5f81815481106100a4575f80fd5b5f918252602090912060039091020180546001820180546001600160a01b039092169350906100d290610442565b80601f01602080910402602001604051908101604052809291908181526020018280546100fe90610442565b80156101495780601f1061012057610100808354040283529160200191610149565b820191905f5260205f20905b81548152906001019060200180831161012c57829003601f168201915b5050505050908060020154905083565b5f5482106101ad5760405162461bcd60e51b815260206004820152601b60248201527f436f6e747269627574696f6e20646f6573206e6f742065786973740000000000604482015260640160405180910390fd5b5050565b6002546040516350076ce760e11b81525f916001600160a01b03169063a00ed9ce906101e190859060040161047a565b6020604051808303815f875af11580156101fd573d5f803e3d5ffd5b505050506040513d601f19601f820116820180604052508101906102219190610493565b60408051606081018252338152602081018581529181018390525f805460018101825590805281517f290decd9548b62a8d60345a988386fc84ba6bc95484008f6362f93160ef3e563600390920291820180546001600160a01b0319166001600160a01b03909216919091178155925193945090927f290decd9548b62a8d60345a988386fc84ba6bc95484008f6362f93160ef3e564909101906102c590826104f6565b506040820151816002015550505050565b5f602082840312156102e6575f80fd5b5035919050565b5f81518084525f5b81811015610311576020818501810151868301820152016102f5565b505f602082860101526020601f19601f83011685010191505092915050565b6001600160a01b03841681526060602082018190525f90610353908301856102ed565b9050826040830152949350505050565b5f8060408385031215610374575f80fd5b50508035926020909101359150565b634e487b7160e01b5f52604160045260245ffd5b5f602082840312156103a7575f80fd5b813567ffffffffffffffff808211156103be575f80fd5b818401915084601f8301126103d1575f80fd5b8135818111156103e3576103e3610383565b604051601f8201601f19908116603f0116810190838211818310171561040b5761040b610383565b81604052828152876020848701011115610423575f80fd5b826020860160208301375f928101602001929092525095945050505050565b600181811c9082168061045657607f821691505b60208210810361047457634e487b7160e01b5f52602260045260245ffd5b50919050565b602081525f61048c60208301846102ed565b9392505050565b5f602082840312156104a3575f80fd5b5051919050565b601f8211156104f157805f5260205f20601f840160051c810160208510156104cf5750805b601f840160051c820191505b818110156104ee575f81556001016104db565b50505b505050565b815167ffffffffffffffff81111561051057610510610383565b6105248161051e8454610442565b846104aa565b602080601f831160018114610557575f84156105405750858301515b5f19600386901b1c1916600185901b1785556105ae565b5f85815260208120601f198616915b8281101561058557888601518255948401946001909101908401610566565b50858210156105a257878501515f19600388901b60f8161c191681555b505060018460011b0185555b50505050505056fea26469706673582212209829ebb8d3882fab96e1ef38cdb5af903af01dc3f9a7353df89bbaa89f09331264736f6c63430008180033",
  "linkReferences": {},
  "deployedLinkReferences": {}
}